{
  "_format": "hh-sol-artifact-1",
  "contractName": "AlohaToken",
  "sourceName": "contracts/AlohaToken.sol",
  "abi": [
    {
      "inputs": [
        {
          "internalType": "address",
          "name": "initialOwner",
          "type": "address"
        },
        {
          "internalType": "uint256",
          "name": "_minApprovals",
          "type": "uint256"
        },
        {
          "internalType": "uint256",
          "name": "_surferAddTimeInterval",
          "type": "uint256"
        },
        {
          "internalType": "uint256",
          "name": "_sessionAddTimeInterval",
          "type": "uint256"
        },
        {
          "internalType": "address[]",
          "name": "initialSurfersAddresses",
          "type": "address[]"
        },
        {
          "internalType": "string[]",
          "name": "initialSurfersAliases",
          "type": "string[]"
        },
        {
          "internalType": "string[]",
          "name": "initialSurfersOffchainInfoHashes",
          "type": "string[]"
        }
      ],
      "stateMutability": "nonpayable",
      "type": "constructor"
    },
    {
      "inputs": [],
      "name": "ECDSAInvalidSignature",
      "type": "error"
    },
    {
      "inputs": [
        {
          "internalType": "uint256",
          "name": "length",
          "type": "uint256"
        }
      ],
      "name": "ECDSAInvalidSignatureLength",
      "type": "error"
    },
    {
      "inputs": [
        {
          "internalType": "bytes32",
          "name": "s",
          "type": "bytes32"
        }
      ],
      "name": "ECDSAInvalidSignatureS",
      "type": "error"
    },
    {
      "inputs": [
        {
          "internalType": "address",
          "name": "spender",
          "type": "address"
        },
        {
          "internalType": "uint256",
          "name": "allowance",
          "type": "uint256"
        },
        {
          "internalType": "uint256",
          "name": "needed",
          "type": "uint256"
        }
      ],
      "name": "ERC20InsufficientAllowance",
      "type": "error"
    },
    {
      "inputs": [
        {
          "internalType": "address",
          "name": "sender",
          "type": "address"
        },
        {
          "internalType": "uint256",
          "name": "balance",
          "type": "uint256"
        },
        {
          "internalType": "uint256",
          "name": "needed",
          "type": "uint256"
        }
      ],
      "name": "ERC20InsufficientBalance",
      "type": "error"
    },
    {
      "inputs": [
        {
          "internalType": "address",
          "name": "approver",
          "type": "address"
        }
      ],
      "name": "ERC20InvalidApprover",
      "type": "error"
    },
    {
      "inputs": [
        {
          "internalType": "address",
          "name": "receiver",
          "type": "address"
        }
      ],
      "name": "ERC20InvalidReceiver",
      "type": "error"
    },
    {
      "inputs": [
        {
          "internalType": "address",
          "name": "sender",
          "type": "address"
        }
      ],
      "name": "ERC20InvalidSender",
      "type": "error"
    },
    {
      "inputs": [
        {
          "internalType": "address",
          "name": "spender",
          "type": "address"
        }
      ],
      "name": "ERC20InvalidSpender",
      "type": "error"
    },
    {
      "inputs": [
        {
          "internalType": "address",
          "name": "owner",
          "type": "address"
        }
      ],
      "name": "OwnableInvalidOwner",
      "type": "error"
    },
    {
      "inputs": [
        {
          "internalType": "address",
          "name": "account",
          "type": "address"
        }
      ],
      "name": "OwnableUnauthorizedAccount",
      "type": "error"
    },
    {
      "inputs": [],
      "name": "ReentrancyGuardReentrantCall",
      "type": "error"
    },
    {
      "anonymous": false,
      "inputs": [
        {
          "indexed": true,
          "internalType": "address",
          "name": "owner",
          "type": "address"
        },
        {
          "indexed": true,
          "internalType": "address",
          "name": "spender",
          "type": "address"
        },
        {
          "indexed": false,
          "internalType": "uint256",
          "name": "value",
          "type": "uint256"
        }
      ],
      "name": "Approval",
      "type": "event"
    },
    {
      "anonymous": false,
      "inputs": [
        {
          "indexed": true,
          "internalType": "address",
          "name": "previousOwner",
          "type": "address"
        },
        {
          "indexed": true,
          "internalType": "address",
          "name": "newOwner",
          "type": "address"
        }
      ],
      "name": "OwnershipTransferred",
      "type": "event"
    },
    {
      "anonymous": false,
      "inputs": [
        {
          "indexed": true,
          "internalType": "bytes32",
          "name": "sessionHash",
          "type": "bytes32"
        },
        {
          "indexed": true,
          "internalType": "bytes32",
          "name": "surfer",
          "type": "bytes32"
        }
      ],
      "name": "SurfSessionApproved",
      "type": "event"
    },
    {
      "anonymous": false,
      "inputs": [
        {
          "indexed": true,
          "internalType": "bytes32",
          "name": "sessionHash",
          "type": "bytes32"
        }
      ],
      "name": "SurfSessionCreated",
      "type": "event"
    },
    {
      "anonymous": false,
      "inputs": [
        {
          "indexed": true,
          "internalType": "bytes32",
          "name": "sessionHash",
          "type": "bytes32"
        }
      ],
      "name": "SurfSessionFinalized",
      "type": "event"
    },
    {
      "anonymous": false,
      "inputs": [
        {
          "indexed": true,
          "internalType": "bytes32",
          "name": "surferID",
          "type": "bytes32"
        }
      ],
      "name": "SurferAdded",
      "type": "event"
    },
    {
      "anonymous": false,
      "inputs": [
        {
          "indexed": true,
          "internalType": "bytes32",
          "name": "fromID",
          "type": "bytes32"
        },
        {
          "indexed": true,
          "internalType": "bytes32",
          "name": "toID",
          "type": "bytes32"
        }
      ],
      "name": "SurferApproved",
      "type": "event"
    },
    {
      "anonymous": false,
      "inputs": [
        {
          "indexed": true,
          "internalType": "bytes32",
          "name": "surfer",
          "type": "bytes32"
        }
      ],
      "name": "SurferDeleted",
      "type": "event"
    },
    {
      "anonymous": false,
      "inputs": [
        {
          "indexed": true,
          "internalType": "bytes32",
          "name": "surfer",
          "type": "bytes32"
        }
      ],
      "name": "SurferEdited",
      "type": "event"
    },
    {
      "anonymous": false,
      "inputs": [
        {
          "indexed": true,
          "internalType": "address",
          "name": "from",
          "type": "address"
        },
        {
          "indexed": true,
          "internalType": "address",
          "name": "to",
          "type": "address"
        },
        {
          "indexed": false,
          "internalType": "uint256",
          "name": "value",
          "type": "uint256"
        }
      ],
      "name": "Transfer",
      "type": "event"
    },
    {
      "inputs": [
        {
          "internalType": "bytes32[]",
          "name": "sessionSurfers",
          "type": "bytes32[]"
        },
        {
          "internalType": "uint256[]",
          "name": "waves",
          "type": "uint256[]"
        },
        {
          "internalType": "bytes32",
          "name": "bestWaveSurfer",
          "type": "bytes32"
        },
        {
          "internalType": "bytes32",
          "name": "kookSurfer",
          "type": "bytes32"
        },
        {
          "internalType": "uint256",
          "name": "sessionTime",
          "type": "uint256"
        },
        {
          "internalType": "uint256",
          "name": "surferApprovalIndex",
          "type": "uint256"
        },
        {
          "internalType": "string",
          "name": "offchainInfoHash",
          "type": "string"
        }
      ],
      "name": "addSurfSession",
      "outputs": [],
      "stateMutability": "nonpayable",
      "type": "function"
    },
    {
      "inputs": [
        {
          "internalType": "bytes32[]",
          "name": "sessionSurfers",
          "type": "bytes32[]"
        },
        {
          "internalType": "uint256[]",
          "name": "waves",
          "type": "uint256[]"
        },
        {
          "internalType": "bytes32",
          "name": "bestWaveSurfer",
          "type": "bytes32"
        },
        {
          "internalType": "bytes32",
          "name": "kookSurfer",
          "type": "bytes32"
        },
        {
          "internalType": "uint256",
          "name": "sessionTime",
          "type": "uint256"
        },
        {
          "internalType": "bytes[]",
          "name": "signatures",
          "type": "bytes[]"
        },
        {
          "internalType": "string",
          "name": "offchainInfoHash",
          "type": "string"
        }
      ],
      "name": "addSurfSessionWithSignatures",
      "outputs": [],
      "stateMutability": "nonpayable",
      "type": "function"
    },
    {
      "inputs": [
        {
          "internalType": "string",
          "name": "surferAlias",
          "type": "string"
        },
        {
          "internalType": "string",
          "name": "offchainInfoHash",
          "type": "string"
        }
      ],
      "name": "addSurfer",
      "outputs": [],
      "stateMutability": "nonpayable",
      "type": "function"
    },
    {
      "inputs": [
        {
          "internalType": "address",
          "name": "owner",
          "type": "address"
        },
        {
          "internalType": "address",
          "name": "spender",
          "type": "address"
        }
      ],
      "name": "allowance",
      "outputs": [
        {
          "internalType": "uint256",
          "name": "",
          "type": "uint256"
        }
      ],
      "stateMutability": "view",
      "type": "function"
    },
    {
      "inputs": [
        {
          "internalType": "bytes32",
          "name": "",
          "type": "bytes32"
        },
        {
          "internalType": "bytes32",
          "name": "",
          "type": "bytes32"
        }
      ],
      "name": "approvals",
      "outputs": [
        {
          "internalType": "bool",
          "name": "",
          "type": "bool"
        }
      ],
      "stateMutability": "view",
      "type": "function"
    },
    {
      "inputs": [
        {
          "internalType": "address",
          "name": "spender",
          "type": "address"
        },
        {
          "internalType": "uint256",
          "name": "value",
          "type": "uint256"
        }
      ],
      "name": "approve",
      "outputs": [
        {
          "internalType": "bool",
          "name": "",
          "type": "bool"
        }
      ],
      "stateMutability": "nonpayable",
      "type": "function"
    },
    {
      "inputs": [
        {
          "internalType": "bytes32",
          "name": "surfSessionHash",
          "type": "bytes32"
        },
        {
          "internalType": "uint256",
          "name": "surferApprovalIndex",
          "type": "uint256"
        }
      ],
      "name": "approveSurfSession",
      "outputs": [],
      "stateMutability": "nonpayable",
      "type": "function"
    },
    {
      "inputs": [
        {
          "internalType": "bytes32",
          "name": "surfSessionHash",
          "type": "bytes32"
        },
        {
          "internalType": "uint256[]",
          "name": "surferApprovalIndexes",
          "type": "uint256[]"
        },
        {
          "internalType": "bytes[]",
          "name": "signatures",
          "type": "bytes[]"
        }
      ],
      "name": "approveSurfSessionWithSignatures",
      "outputs": [],
      "stateMutability": "nonpayable",
      "type": "function"
    },
    {
      "inputs": [
        {
          "internalType": "bytes32",
          "name": "surferIDToApprove",
          "type": "bytes32"
        },
        {
          "internalType": "address[]",
          "name": "signers",
          "type": "address[]"
        },
        {
          "internalType": "bytes[]",
          "name": "signatures",
          "type": "bytes[]"
        }
      ],
      "name": "approveSurferWithSignatures",
      "outputs": [],
      "stateMutability": "nonpayable",
      "type": "function"
    },
    {
      "inputs": [
        {
          "internalType": "bytes32[]",
          "name": "surferIDsToApprove",
          "type": "bytes32[]"
        }
      ],
      "name": "approveSurfers",
      "outputs": [],
      "stateMutability": "nonpayable",
      "type": "function"
    },
    {
      "inputs": [
        {
          "internalType": "address",
          "name": "account",
          "type": "address"
        }
      ],
      "name": "balanceOf",
      "outputs": [
        {
          "internalType": "uint256",
          "name": "",
          "type": "uint256"
        }
      ],
      "stateMutability": "view",
      "type": "function"
    },
    {
      "inputs": [
        {
          "internalType": "address",
          "name": "to",
          "type": "address"
        },
        {
          "internalType": "uint256",
          "name": "amount",
          "type": "uint256"
        }
      ],
      "name": "burn",
      "outputs": [],
      "stateMutability": "nonpayable",
      "type": "function"
    },
    {
      "inputs": [],
      "name": "decimals",
      "outputs": [
        {
          "internalType": "uint8",
          "name": "",
          "type": "uint8"
        }
      ],
      "stateMutability": "view",
      "type": "function"
    },
    {
      "inputs": [
        {
          "internalType": "bytes32",
          "name": "surferID",
          "type": "bytes32"
        },
        {
          "internalType": "uint256",
          "name": "i",
          "type": "uint256"
        }
      ],
      "name": "deleteSurfer",
      "outputs": [],
      "stateMutability": "nonpayable",
      "type": "function"
    },
    {
      "inputs": [
        {
          "internalType": "bytes32",
          "name": "surferID",
          "type": "bytes32"
        },
        {
          "internalType": "uint256",
          "name": "i",
          "type": "uint256"
        },
        {
          "internalType": "address",
          "name": "newAddress",
          "type": "address"
        },
        {
          "internalType": "string",
          "name": "newOffchainInfoHash",
          "type": "string"
        }
      ],
      "name": "editSurfer",
      "outputs": [],
      "stateMutability": "nonpayable",
      "type": "function"
    },
    {
      "inputs": [
        {
          "internalType": "bytes32",
          "name": "sessionHash",
          "type": "bytes32"
        }
      ],
      "name": "getSurfSession",
      "outputs": [
        {
          "components": [
            {
              "internalType": "bool",
              "name": "approved",
              "type": "bool"
            },
            {
              "internalType": "string",
              "name": "offchainInfoHash",
              "type": "string"
            },
            {
              "internalType": "bytes32[]",
              "name": "surfers",
              "type": "bytes32[]"
            },
            {
              "internalType": "uint256[]",
              "name": "waves",
              "type": "uint256[]"
            },
            {
              "internalType": "bytes32",
              "name": "bestWaveSurfer",
              "type": "bytes32"
            },
            {
              "internalType": "bytes32",
              "name": "kookSurfer",
              "type": "bytes32"
            },
            {
              "internalType": "uint256",
              "name": "sessionTime",
              "type": "uint256"
            },
            {
              "internalType": "bool[]",
              "name": "approvals",
              "type": "bool[]"
            },
            {
              "internalType": "uint256",
              "name": "totalApprovals",
              "type": "uint256"
            }
          ],
          "internalType": "struct AlohaToken.SurfSession",
          "name": "",
          "type": "tuple"
        }
      ],
      "stateMutability": "view",
      "type": "function"
    },
    {
      "inputs": [],
      "name": "getSurfSessions",
      "outputs": [
        {
          "internalType": "bytes32[]",
          "name": "",
          "type": "bytes32[]"
        }
      ],
      "stateMutability": "view",
      "type": "function"
    },
    {
      "inputs": [
        {
          "internalType": "bytes32",
          "name": "surferId",
          "type": "bytes32"
        }
      ],
      "name": "getSurfer",
      "outputs": [
        {
          "internalType": "address",
          "name": "owner",
          "type": "address"
        },
        {
          "internalType": "string",
          "name": "surferAlias",
          "type": "string"
        },
        {
          "internalType": "bytes32[]",
          "name": "surferApprovals",
          "type": "bytes32[]"
        },
        {
          "internalType": "string",
          "name": "offchainInfoHash",
          "type": "string"
        }
      ],
      "stateMutability": "view",
      "type": "function"
    },
    {
      "inputs": [
        {
          "internalType": "bytes32",
          "name": "fromID",
          "type": "bytes32"
        },
        {
          "internalType": "bytes32",
          "name": "toID",
          "type": "bytes32"
        }
      ],
      "name": "getSurferApproval",
      "outputs": [
        {
          "internalType": "bool",
          "name": "",
          "type": "bool"
        }
      ],
      "stateMutability": "view",
      "type": "function"
    },
    {
      "inputs": [
        {
          "internalType": "bytes32",
          "name": "surferId",
          "type": "bytes32"
        }
      ],
      "name": "getSurferByID",
      "outputs": [
        {
          "components": [
            {
              "internalType": "address",
              "name": "owner",
              "type": "address"
            },
            {
              "internalType": "string",
              "name": "surferAlias",
              "type": "string"
            },
            {
              "internalType": "bytes32[]",
              "name": "approvals",
              "type": "bytes32[]"
            },
            {
              "internalType": "string",
              "name": "offchainInfoHash",
              "type": "string"
            }
          ],
          "internalType": "struct AlohaToken.Surfer",
          "name": "info",
          "type": "tuple"
        }
      ],
      "stateMutability": "view",
      "type": "function"
    },
    {
      "inputs": [],
      "name": "getSurferList",
      "outputs": [
        {
          "internalType": "bytes32[]",
          "name": "",
          "type": "bytes32[]"
        }
      ],
      "stateMutability": "view",
      "type": "function"
    },
    {
      "inputs": [],
      "name": "getSurfersList",
      "outputs": [
        {
          "internalType": "bytes32[]",
          "name": "",
          "type": "bytes32[]"
        }
      ],
      "stateMutability": "view",
      "type": "function"
    },
    {
      "inputs": [
        {
          "internalType": "address",
          "name": "surferAddress",
          "type": "address"
        }
      ],
      "name": "isSurferByAddress",
      "outputs": [
        {
          "internalType": "bool",
          "name": "",
          "type": "bool"
        }
      ],
      "stateMutability": "view",
      "type": "function"
    },
    {
      "inputs": [
        {
          "internalType": "bytes32",
          "name": "surferID",
          "type": "bytes32"
        }
      ],
      "name": "isSurferByID",
      "outputs": [
        {
          "internalType": "bool",
          "name": "",
          "type": "bool"
        }
      ],
      "stateMutability": "view",
      "type": "function"
    },
    {
      "inputs": [],
      "name": "lastSessionTime",
      "outputs": [
        {
          "internalType": "uint256",
          "name": "",
          "type": "uint256"
        }
      ],
      "stateMutability": "view",
      "type": "function"
    },
    {
      "inputs": [],
      "name": "lastSurferAdded",
      "outputs": [
        {
          "internalType": "uint256",
          "name": "",
          "type": "uint256"
        }
      ],
      "stateMutability": "view",
      "type": "function"
    },
    {
      "inputs": [],
      "name": "minApprovals",
      "outputs": [
        {
          "internalType": "uint256",
          "name": "",
          "type": "uint256"
        }
      ],
      "stateMutability": "view",
      "type": "function"
    },
    {
      "inputs": [
        {
          "internalType": "address",
          "name": "to",
          "type": "address"
        },
        {
          "internalType": "uint256",
          "name": "amount",
          "type": "uint256"
        }
      ],
      "name": "mint",
      "outputs": [],
      "stateMutability": "nonpayable",
      "type": "function"
    },
    {
      "inputs": [],
      "name": "name",
      "outputs": [
        {
          "internalType": "string",
          "name": "",
          "type": "string"
        }
      ],
      "stateMutability": "view",
      "type": "function"
    },
    {
      "inputs": [],
      "name": "owner",
      "outputs": [
        {
          "internalType": "address",
          "name": "",
          "type": "address"
        }
      ],
      "stateMutability": "view",
      "type": "function"
    },
    {
      "inputs": [],
      "name": "renounceOwnership",
      "outputs": [],
      "stateMutability": "nonpayable",
      "type": "function"
    },
    {
      "inputs": [],
      "name": "sessionAddTimeInterval",
      "outputs": [
        {
          "internalType": "uint256",
          "name": "",
          "type": "uint256"
        }
      ],
      "stateMutability": "view",
      "type": "function"
    },
    {
      "inputs": [
        {
          "internalType": "uint256",
          "name": "newMinApprovals",
          "type": "uint256"
        }
      ],
      "name": "setMinApprovals",
      "outputs": [],
      "stateMutability": "nonpayable",
      "type": "function"
    },
    {
      "inputs": [
        {
          "internalType": "uint256",
          "name": "newSessionAddTimeInterval",
          "type": "uint256"
        }
      ],
      "name": "setSessionAddTimeInterval",
      "outputs": [],
      "stateMutability": "nonpayable",
      "type": "function"
    },
    {
      "inputs": [
        {
          "internalType": "uint256",
          "name": "newSurferAddInterval",
          "type": "uint256"
        }
      ],
      "name": "setSurferAddInterval",
      "outputs": [],
      "stateMutability": "nonpayable",
      "type": "function"
    },
    {
      "inputs": [
        {
          "internalType": "bytes32",
          "name": "",
          "type": "bytes32"
        }
      ],
      "name": "surfSessions",
      "outputs": [
        {
          "internalType": "bool",
          "name": "approved",
          "type": "bool"
        },
        {
          "internalType": "string",
          "name": "offchainInfoHash",
          "type": "string"
        },
        {
          "internalType": "bytes32",
          "name": "bestWaveSurfer",
          "type": "bytes32"
        },
        {
          "internalType": "bytes32",
          "name": "kookSurfer",
          "type": "bytes32"
        },
        {
          "internalType": "uint256",
          "name": "sessionTime",
          "type": "uint256"
        },
        {
          "internalType": "uint256",
          "name": "totalApprovals",
          "type": "uint256"
        }
      ],
      "stateMutability": "view",
      "type": "function"
    },
    {
      "inputs": [
        {
          "internalType": "uint256",
          "name": "",
          "type": "uint256"
        }
      ],
      "name": "surfSessionsList",
      "outputs": [
        {
          "internalType": "bytes32",
          "name": "",
          "type": "bytes32"
        }
      ],
      "stateMutability": "view",
      "type": "function"
    },
    {
      "inputs": [],
      "name": "surferAddTimeInterval",
      "outputs": [
        {
          "internalType": "uint256",
          "name": "",
          "type": "uint256"
        }
      ],
      "stateMutability": "view",
      "type": "function"
    },
    {
      "inputs": [
        {
          "internalType": "address",
          "name": "",
          "type": "address"
        }
      ],
      "name": "surferIDByAddress",
      "outputs": [
        {
          "internalType": "bytes32",
          "name": "",
          "type": "bytes32"
        }
      ],
      "stateMutability": "view",
      "type": "function"
    },
    {
      "inputs": [
        {
          "internalType": "bytes32",
          "name": "",
          "type": "bytes32"
        }
      ],
      "name": "surfers",
      "outputs": [
        {
          "internalType": "address",
          "name": "owner",
          "type": "address"
        },
        {
          "internalType": "string",
          "name": "surferAlias",
          "type": "string"
        },
        {
          "internalType": "string",
          "name": "offchainInfoHash",
          "type": "string"
        }
      ],
      "stateMutability": "view",
      "type": "function"
    },
    {
      "inputs": [
        {
          "internalType": "uint256",
          "name": "",
          "type": "uint256"
        }
      ],
      "name": "surfersList",
      "outputs": [
        {
          "internalType": "bytes32",
          "name": "",
          "type": "bytes32"
        }
      ],
      "stateMutability": "view",
      "type": "function"
    },
    {
      "inputs": [],
      "name": "symbol",
      "outputs": [
        {
          "internalType": "string",
          "name": "",
          "type": "string"
        }
      ],
      "stateMutability": "view",
      "type": "function"
    },
    {
      "inputs": [],
      "name": "totalSupply",
      "outputs": [
        {
          "internalType": "uint256",
          "name": "",
          "type": "uint256"
        }
      ],
      "stateMutability": "view",
      "type": "function"
    },
    {
      "inputs": [
        {
          "internalType": "address",
          "name": "to",
          "type": "address"
        },
        {
          "internalType": "uint256",
          "name": "value",
          "type": "uint256"
        }
      ],
      "name": "transfer",
      "outputs": [
        {
          "internalType": "bool",
          "name": "",
          "type": "bool"
        }
      ],
      "stateMutability": "nonpayable",
      "type": "function"
    },
    {
      "inputs": [
        {
          "internalType": "address",
          "name": "from",
          "type": "address"
        },
        {
          "internalType": "address",
          "name": "to",
          "type": "address"
        },
        {
          "internalType": "uint256",
          "name": "value",
          "type": "uint256"
        }
      ],
      "name": "transferFrom",
      "outputs": [
        {
          "internalType": "bool",
          "name": "",
          "type": "bool"
        }
      ],
      "stateMutability": "nonpayable",
      "type": "function"
    },
    {
      "inputs": [
        {
          "internalType": "address",
          "name": "newOwner",
          "type": "address"
        }
      ],
      "name": "transferOwnership",
      "outputs": [],
      "stateMutability": "nonpayable",
      "type": "function"
    }
  ],
  "bytecode": "0x608060405234801561001057600080fd5b50604051614b4f380380614b4f83398101604081905261002f91610479565b8660405180604001604052806005815260200164416c6f686160d81b8152506040518060400160405280600381526020016208298960eb1b81525081600390816100799190610627565b5060046100868282610627565b5050506001600160a01b0381166100b757604051631e4fbdf760e01b81526000600482015260240160405180910390fd5b6100c081610265565b506001600655600f8690556010859055601184905560005b835181101561025857600061010b8483815181106100f8576100f86106e5565b60200260200101516102b760201b60201c565b905084828151811061011f5761011f6106e5565b60200260200101516007600083815260200190815260200160002060000160006101000a8154816001600160a01b0302191690836001600160a01b03160217905550838281518110610173576101736106e5565b602002602001015160076000838152602001908152602001600020600101908161019d9190610627565b508282815181106101b0576101b06106e5565b60200260200101516007600083815260200190815260200160002060030190816101da9190610627565b5080600860008785815181106101f2576101f26106e5565b6020908102919091018101516001600160a01b031682528101919091526040016000908120919091556009805460018181018355919092527f6e1540171b6c0c960b71a7020d9f60077f6af931a8bbf590da0223dacf75c7af90910191909155016100d8565b5050505050505050610717565b600580546001600160a01b038381166001600160a01b0319831681179093556040519116919082907f8be0079c531659141344cd1fd0a4f28419497f9722a3daafe3b4186f6b6457e090600090a35050565b6000816040516020016102ca91906106fb565b604051602081830303815290604052805190602001209050919050565b80516001600160a01b03811681146102fe57600080fd5b919050565b634e487b7160e01b600052604160045260246000fd5b604051601f8201601f191681016001600160401b038111828210171561034157610341610303565b604052919050565b60006001600160401b0382111561036257610362610303565b5060051b60200190565b60005b8381101561038757818101518382015260200161036f565b50506000910152565b600082601f8301126103a157600080fd5b81516103b46103af82610349565b610319565b8082825260208201915060208360051b8601019250858311156103d657600080fd5b602085015b8381101561046f5780516001600160401b038111156103f957600080fd5b8601603f8101881361040a57600080fd5b60208101516001600160401b0381111561042657610426610303565b610439601f8201601f1916602001610319565b8181526040838301018a101561044e57600080fd5b61045f82602083016040860161036c565b85525050602092830192016103db565b5095945050505050565b600080600080600080600060e0888a03121561049457600080fd5b61049d886102e7565b602089015160408a015160608b015160808c0151939a50919850965094506001600160401b038111156104cf57600080fd5b8801601f81018a136104e057600080fd5b80516104ee6103af82610349565b8082825260208201915060208360051b85010192508c83111561051057600080fd5b6020840193505b8284101561053957610528846102e7565b825260209384019390910190610517565b60a08c0151909650925050506001600160401b0381111561055957600080fd5b6105658a828b01610390565b60c08a015190935090506001600160401b0381111561058357600080fd5b61058f8a828b01610390565b91505092959891949750929550565b600181811c908216806105b257607f821691505b6020821081036105d257634e487b7160e01b600052602260045260246000fd5b50919050565b601f82111561062257806000526020600020601f840160051c810160208510156105ff5750805b601f840160051c820191505b8181101561061f576000815560010161060b565b50505b505050565b81516001600160401b0381111561064057610640610303565b6106548161064e845461059e565b846105d8565b6020601f82116001811461068857600083156106705750848201515b600019600385901b1c1916600184901b17845561061f565b600084815260208120601f198516915b828110156106b85787850151825560209485019460019092019101610698565b50848210156106d65786840151600019600387901b60f8161c191681555b50505050600190811b01905550565b634e487b7160e01b600052603260045260246000fd5b6000825161070d81846020870161036c565b9190910192915050565b614429806107266000396000f3fe608060405234801561001057600080fd5b506004361061028a5760003560e01c8063848b531c1161015c578063b53738e6116100ce578063dd62ed3e11610087578063dd62ed3e14610600578063de2de4de14610639578063e980690414610667578063f2fde38b1461067a578063f5c7cd481461068d578063f7e8fd7b1461032f57600080fd5b8063b53738e6146105b7578063b90b4256146105c0578063c322eb71146105c8578063c5915704146105db578063cf0902af146105ee578063d8309706146105f757600080fd5b80639dc29fac116101205780639dc29fac1461052e578063a4dbf83514610541578063a50b75cc14610563578063a9059cbb14610576578063ad12b21914610584578063b0054335146105a457600080fd5b8063848b531c146104b75780638793efe7146104ca5780638da5cb5b146104dd5780638faaed28146104f857806395d89b411461052657600080fd5b80632f5b06eb1161020057806357dd3bd3116101b957806357dd3bd31461042a57806370a082311461043d578063713da85214610466578063715018a61461047957806371bb2c53146104815780637e9c3d961461049457600080fd5b80632f5b06eb14610397578063313ce567146103b757806331f7312e146103c65780633bdbe9e4146103d957806340c10f19146103ec5780634819d8fc146103ff57600080fd5b806311aa83411161025257806311aa83411461031c57806311e825281461032f57806318160ddd14610344578063188c032c1461034c57806323b872dd146103715780632b7de34e1461038457600080fd5b80630127a7fb1461028f57806306fdde03146102b8578063095ea7b3146102cd5780630aa90040146102f05780631179559614610305575b600080fd5b6102a261029d3660046135c9565b610696565b6040516102af91906136a2565b60405180910390f35b6102c06108ff565b6040516102af9190613763565b6102e06102db366004613799565b610991565b60405190151581526020016102af565b6103036102fe3660046135c9565b6109ab565b005b61030e60105481565b6040519081526020016102af565b61030e61032a3660046135c9565b6109b8565b6103376109d9565b6040516102af91906137c3565b60025461030e565b61035f61035a3660046135c9565b610a30565b6040516102af969594939291906137d6565b6102e061037f366004613816565b610af1565b61030361039236600461389e565b610b41565b61030e6103a536600461391b565b60086020526000908152604090205481565b604051601281526020016102af565b61030e6103d43660046135c9565b610e3d565b6103036103e7366004613a6d565b610e4d565b6103036103fa366004613799565b61120e565b6102e061040d3660046135c9565b6000908152600760205260409020546001600160a01b0316151590565b6103036104383660046135c9565b611224565b61030e61044b36600461391b565b6001600160a01b031660009081526020819052604090205490565b610303610474366004613b2a565b611231565b61030361162a565b61030361048f36600461389e565b61163e565b6104a76104a23660046135c9565b611a07565b6040516102af9493929190613b4c565b6103036104c5366004613ba1565b611bb5565b6103036104d83660046135c9565b611db7565b6005546040516001600160a01b0390911681526020016102af565b6102e0610506366004613b2a565b6000918252600a6020908152604080842092845291905290205460ff1690565b6102c0611dc4565b61030361053c366004613799565b611dd3565b61055461054f3660046135c9565b611de5565b6040516102af93929190613be2565b610303610571366004613c18565b611f22565b6102e061037f366004613799565b6105976105923660046135c9565b612187565b6040516102af9190613cb2565b6102e06105b236600461391b565b61236a565b61030e600d5481565b610337612387565b6103036105d6366004613d24565b6123dd565b6103036105e9366004613b2a565b612603565b61030e600e5481565b61030e600f5481565b61030e61060e366004613d84565b6001600160a01b03918216600090815260016020908152604080832093909416825291909152205490565b6102e0610647366004613b2a565b600a60209081526000928352604080842090915290825290205460ff1681565b610303610675366004613db7565b61282c565b61030361068836600461391b565b612eb4565b61030e60115481565b6106ed60405180610120016040528060001515815260200160608152602001606081526020016060815260200160008019168152602001600080191681526020016000815260200160608152602001600081525090565b6000828152600b602090815260409182902082516101208101909352805460ff1615158352600181018054919284019161072690613e9a565b80601f016020809104026020016040519081016040528092919081815260200182805461075290613e9a565b801561079f5780601f106107745761010080835404028352916020019161079f565b820191906000526020600020905b81548152906001019060200180831161078257829003601f168201915b50505050508152602001600282018054806020026020016040519081016040528092919081815260200182805480156107f757602002820191906000526020600020905b8154815260200190600101908083116107e3575b505050505081526020016003820180548060200260200160405190810160405280929190818152602001828054801561084f57602002820191906000526020600020905b81548152602001906001019080831161083b575b50505050508152602001600482015481526020016005820154815260200160068201548152602001600782018054806020026020016040519081016040528092919081815260200182805480156108e557602002820191906000526020600020906000905b825461010083900a900460ff1615158152602060019283018181049485019490930390920291018084116108b45790505b505050505081526020016008820154815250509050919050565b60606003805461090e90613e9a565b80601f016020809104026020016040519081016040528092919081815260200182805461093a90613e9a565b80156109875780601f1061095c57610100808354040283529160200191610987565b820191906000526020600020905b81548152906001019060200180831161096a57829003601f168201915b5050505050905090565b60003361099f818585612ef2565b60019150505b92915050565b6109b3612eff565b600f55565b600981815481106109c857600080fd5b600091825260209091200154905081565b6060600980548060200260200160405190810160405280929190818152602001828054801561098757602002820191906000526020600020905b815481526020019060010190808311610a13575050505050905090565b600b602052600090815260409020805460018201805460ff9092169291610a5690613e9a565b80601f0160208091040260200160405190810160405280929190818152602001828054610a8290613e9a565b8015610acf5780601f10610aa457610100808354040283529160200191610acf565b820191906000526020600020905b815481529060010190602001808311610ab257829003601f168201915b5050505050908060040154908060050154908060060154908060080154905086565b60405162461bcd60e51b815260206004820152601960248201527f546f6b656e206973206e6f6e2d7472616e7366657261626c650000000000000060448201526000906064015b60405180910390fd5b610b4a3361236a565b610b665760405162461bcd60e51b8152600401610b3890613ed4565b610b6e612f2c565b828114610bcc5760405162461bcd60e51b815260206004820152602660248201527f5369676e65727320616e64207369676e617475726573206c656e677468206d696044820152650e6dac2e8c6d60d31b6064820152608401610b38565b60005b83811015610e2b576000610c43610be588612f56565b858585818110610bf757610bf7613efa565b9050602002810190610c099190613f10565b8080601f016020809104026020016040519081016040528093929190818152602001838380828437600092019190915250612f8992505050565b9050600060086000888886818110610c5d57610c5d613efa565b9050602002016020810190610c72919061391b565b6001600160a01b03166001600160a01b03168152602001908152602001600020549050868684818110610ca757610ca7613efa565b9050602002016020810190610cbc919061391b565b6001600160a01b0316826001600160a01b031614610cec5760405162461bcd60e51b8152600401610b3890613f56565b610cf58261236a565b610d3a5760405162461bcd60e51b815260206004820152601660248201527529b4b3b732b91034b9903737ba10309039bab93332b960511b6044820152606401610b38565b6000818152600a602090815260408083208b845290915290205460ff1615610da45760405162461bcd60e51b815260206004820152601f60248201527f416c726561647920617070726f766564206279207468697320737572666572006044820152606401610b38565b6000818152600a602090815260408083208b84528252808320805460ff1916600190811790915560078352818420600201805491820181558452828420018490556001600160a01b038516835260089091528082205490518a927f719ade0a42317292b9d5bfe63456c7ba1db67cbe585f23d5eb3fbf5f66bf324691a35050600101610bcf565b50610e366001600655565b5050505050565b600c81815481106109c857600080fd5b610e563361236a565b610e725760405162461bcd60e51b8152600401610b3890613ed4565b610e7a612f2c565b85518714610e9a5760405162461bcd60e51b8152600401610b3890613f81565b33600760008a8a86818110610eb157610eb1613efa565b60209081029290920135835250810191909152604001600020546001600160a01b031614610f215760405162461bcd60e51b815260206004820152601b60248201527f4e6f7420612073757266657220696e207468652073657373696f6e00000000006044820152606401610b38565b428310610f705760405162461bcd60e51b815260206004820181905260248201527f53657373696f6e2074696d65206d75737420626520696e2074686520706173746044820152606401610b38565b600088888888888887604051602001610f8f9796959493929190613fc2565b604051602081830303815290604052805190602001209050600b60008281526020019081526020016000206001018054610fc890613e9a565b1590506110105760405162461bcd60e51b815260206004820152601660248201527553657373696f6e20616c72656164792065786973747360501b6044820152606401610b38565b6040518061012001604052806000151581526020018381526020018a8a808060200260200160405190810160405280939291908181526020018383602002808284376000920191909152505050908252506020810189905260408101889052606081018790526080810186905260a001896001600160401b0381111561109857611098613936565b6040519080825280602002602001820160405280156110c1578160200160208202803683370190505b508152600160209182018190526000848152600b8352604090208351815460ff191690151517815591830151908201906110fb9082614088565b5060408201518051611117916002840191602090910190613475565b5060608201518051611133916003840191602090910190613475565b506080820151600482015560a0820151600582015560c0820151600682015560e0820151805161116d9160078401916020909101906134c0565b5061010091909101516008909101556000818152600b60205260409020600701805460019190859081106111a3576111a3613efa565b90600052602060002090602091828204019190066101000a81548160ff021916908315150217905550807f32c3ff8f098354dffdedb285512c74a0f818a55d23849eaecc0c16a554cf544560405160405180910390a2506112046001600655565b5050505050505050565b611216612eff565b6112208282612fb3565b5050565b61122c612eff565b601055565b61123a3361236a565b6112565760405162461bcd60e51b8152600401610b3890613ed4565b61125e612f2c565b6000828152600b6020526040812060028101805491923392600792908690811061128a5761128a613efa565b600091825260208083209091015483528201929092526040019020546001600160a01b0316146112fc5760405162461bcd60e51b815260206004820152601b60248201527f4e6f7420612073757266657220696e207468652073657373696f6e00000000006044820152606401610b38565b80600701828154811061131157611311613efa565b90600052602060002090602091828204019190069054906101000a900460ff16156113715760405162461bcd60e51b815260206004820152601060248201526f105b1c9958591e48185c1c1c9bdd995960821b6044820152606401610b38565b600181600701838154811061138857611388613efa565b90600052602060002090602091828204019190066101000a81548160ff0219169083151502179055508060080160008154809291906113c69061415c565b91905055508060020182815481106113e0576113e0613efa565b9060005260206000200154837f1dc0a49657e7090fb6f943e323037571fab29e291a7720e78742c1188f7dd17360405160405180910390a3600281015460088201540361161f57601154600e546114379190614175565b4210156114565760405162461bcd60e51b8152600401610b3890614188565b42600e5560005b60028201548110156114d8576114d061149483600201838154811061148457611484613efa565b9060005260206000200154612187565b516114a16012600a6142b3565b8460030184815481106114b6576114b6613efa565b90600052602060002001546114cb91906142c2565b612fb3565b60010161145d565b5060048101541561150b5761150b6114f38260040154612187565b516115006012600a6142b3565b6114cb9060056142c2565b6005810154156115b4576115216012600a6142b3565b61152c9060036142c2565b61155861153c8360050154612187565b516001600160a01b031660009081526020819052604090205490565b101561158c5761158761156e8260050154612187565b6000015161158261153c8460050154612187565b612fe9565b6115b4565b6115b461159c8260050154612187565b516115a96012600a6142b3565b6115829060036142c2565b805460ff191660019081178255600c8054918201815560009081527fdf6966c971051c3d54ec59162606531493a51404a002842f56009d7e5cf4a8c790910184905560405184917ffce50d447ab76865567b9df14c39fb86eee1bc59f8d5d8c637f1a9d161063e9291a25b506112206001600655565b611632612eff565b61163c600061301f565b565b6116473361236a565b6116635760405162461bcd60e51b8152600401610b3890613ed4565b61166b612f2c565b8083146116ba5760405162461bcd60e51b815260206004820152601a60248201527f5369676e617475726573206c656e677468206d69736d617463680000000000006044820152606401610b38565b6000858152600b60205260408120905b848110156118a65760006116f26116e089612f56565b868685818110610bf757610bf7613efa565b905060006117268460020189898681811061170f5761170f613efa565b905060200201358154811061148457611484613efa565b905080600001516001600160a01b0316826001600160a01b03161461175d5760405162461bcd60e51b8152600401610b3890613f56565b600f5481604001515110156117ad5760405162461bcd60e51b815260206004820152601660248201527514da59db995c881a5cc81b9bdd08185c1c1c9bdd995960521b6044820152606401610b38565b6000898152600b602052604090206001906007018989868181106117d3576117d3613efa565b90506020020135815481106117ea576117ea613efa565b6000918252602080832081830401805460ff601f9094166101000a9384021916941515929092029390931790558a8152600b909152604081206008018054916118328361415c565b91905055508360020188888581811061184d5761184d613efa565b905060200201358154811061186457611864613efa565b9060005260206000200154897f1dc0a49657e7090fb6f943e323037571fab29e291a7720e78742c1188f7dd17360405160405180910390a350506001016116ca565b506002810154600882015403610e2b57601154600e546118c69190614175565b4210156118e55760405162461bcd60e51b8152600401610b3890614188565b42600e5560005b600282015481101561191b5761191361149483600201838154811061148457611484613efa565b6001016118ec565b50600481015415611936576119366114f38260040154612187565b6005810154156119925761194c6012600a6142b3565b6119579060036142c2565b61196761153c8360050154612187565b10156119825761197d61156e8260050154612187565b611992565b61199261159c8260050154612187565b805460ff191660019081178255600c8054918201815560009081527fdf6966c971051c3d54ec59162606531493a51404a002842f56009d7e5cf4a8c790910187905560405187917ffce50d447ab76865567b9df14c39fb86eee1bc59f8d5d8c637f1a9d161063e9291a250610e366001600655565b60008181526007602052604081208054600182018054606093849384936001600160a01b0390911692909160028101916003909101908390611a4890613e9a565b80601f0160208091040260200160405190810160405280929190818152602001828054611a7490613e9a565b8015611ac15780601f10611a9657610100808354040283529160200191611ac1565b820191906000526020600020905b815481529060010190602001808311611aa457829003601f168201915b5050505050925081805480602002602001604051908101604052809291908181526020018280548015611b1357602002820191906000526020600020905b815481526020019060010190808311611aff575b50505050509150808054611b2690613e9a565b80601f0160208091040260200160405190810160405280929190818152602001828054611b5290613e9a565b8015611b9f5780601f10611b7457610100808354040283529160200191611b9f565b820191906000526020600020905b815481529060010190602001808311611b8257829003601f168201915b5050505050905093509350935093509193509193565b611bbe3361236a565b611bda5760405162461bcd60e51b8152600401610b3890613ed4565b611be2612f2c565b3360009081526008602052604090205481611c365760405162461bcd60e51b81526020600482015260146024820152734e6f7420656e6f75676820617070726f76616c7360601b6044820152606401610b38565b60005b82811015611dab576000848483818110611c5557611c55613efa565b905060200201359050808303611ca55760405162461bcd60e51b815260206004820152601560248201527421b0b73a1030b8383937bb32903cb7bab939b2b63360591b6044820152606401610b38565b6000818152600760205260409020546001600160a01b0316611cd95760405162461bcd60e51b8152600401610b3890613ed4565b6000838152600a6020908152604080832084845290915290205460ff1615611d365760405162461bcd60e51b815260206004820152601060248201526f105b1c9958591e48185c1c1c9bdd995960821b6044820152606401610b38565b6000838152600a602090815260408083208484528252808320805460ff191660019081179091556007835281842060020180549182018155845291832090910185905551829185917f719ade0a42317292b9d5bfe63456c7ba1db67cbe585f23d5eb3fbf5f66bf32469190a350600101611c39565b50506112206001600655565b611dbf612eff565b601155565b60606004805461090e90613e9a565b611ddb612eff565b6112208282612fe9565b600760205260009081526040902080546001820180546001600160a01b039092169291611e1190613e9a565b80601f0160208091040260200160405190810160405280929190818152602001828054611e3d90613e9a565b8015611e8a5780601f10611e5f57610100808354040283529160200191611e8a565b820191906000526020600020905b815481529060010190602001808311611e6d57829003601f168201915b505050505090806003018054611e9f90613e9a565b80601f0160208091040260200160405190810160405280929190818152602001828054611ecb90613e9a565b8015611f185780601f10611eed57610100808354040283529160200191611f18565b820191906000526020600020905b815481529060010190602001808311611efb57829003601f168201915b5050505050905083565b611f2a612f2c565b601054600d54611f3a9190614175565b421015611f955760405162461bcd60e51b8152602060048201526024808201527f4f6e6c79206f6e65207375726665722063616e206265206164646564207065726044820152632064617960e01b6064820152608401610b38565b6000829003611fde5760405162461bcd60e51b8152602060048201526015602482015274416c6961732063616e6e6f7420626520656d70747960581b6044820152606401610b38565b600081511161202f5760405162461bcd60e51b815260206004820181905260248201527f6f6666636861696e496e666f486173682063616e6e6f7420626520656d7074796044820152606401610b38565b6120383361236a565b156120785760405162461bcd60e51b815260206004820152601060248201526f20b63932b0b23c90309039bab93332b960811b6044820152606401610b38565b60006120b984848080601f01602080910402602001604051908101604052809392919081815260200183838082843760009201919091525061307192505050565b3360008181526008602090815260408083208590558483526007909152902080546001600160a01b03191690911781559091506001016120fa8486836142d9565b5060008181526007602052604090206003016121168382614088565b506009805460018101825560009182527f6e1540171b6c0c960b71a7020d9f60077f6af931a8bbf590da0223dacf75c7af0182905542600d5560405182917f9f6cb28b8c441711659f47d1c7019ae3f4e5ffaa6a65ae20db236c5370523dc491a2506121826001600655565b505050565b6121bb604051806080016040528060006001600160a01b031681526020016060815260200160608152602001606081525090565b60008281526007602090815260409182902082516080810190935280546001600160a01b0316835260018101805491928401916121f790613e9a565b80601f016020809104026020016040519081016040528092919081815260200182805461222390613e9a565b80156122705780601f1061224557610100808354040283529160200191612270565b820191906000526020600020905b81548152906001019060200180831161225357829003601f168201915b50505050508152602001600282018054806020026020016040519081016040528092919081815260200182805480156122c857602002820191906000526020600020905b8154815260200190600101908083116122b4575b505050505081526020016003820180546122e190613e9a565b80601f016020809104026020016040519081016040528092919081815260200182805461230d90613e9a565b801561235a5780601f1061232f5761010080835404028352916020019161235a565b820191906000526020600020905b81548152906001019060200180831161233d57829003601f168201915b5050505050815250509050919050565b6001600160a01b0316600090815260086020526040902054151590565b6060600c8054806020026020016040519081016040528092919081815260200182805480156109875760200282019190600052602060002090815481526020019060010190808311610a13575050505050905090565b6123e5612f2c565b6000848152600760205260409020546001600160a01b03166124195760405162461bcd60e51b8152600401610b3890613ed4565b836009848154811061242d5761242d613efa565b9060005260206000200154146124735760405162461bcd60e51b815260206004820152600b60248201526a0aee4dedcce40d2dcc8caf60ab1b6044820152606401610b38565b6005546001600160a01b03163314806124a257506000848152600760205260409020546001600160a01b031633145b6124df5760405162461bcd60e51b815260206004820152600e60248201526d139bdd08185d5d1a1bdc9a5e995960921b6044820152606401610b38565b6000848152600760205260409020546001600160a01b038381169116148061250d575061250b8261236a565b155b6125525760405162461bcd60e51b81526020600482015260166024820152754164647265737320616c726561647920696e2075736560501b6044820152606401610b38565b6000848152600760208181526040808420546001600160a01b031680855284835290842054938890529190526125889082612fe9565b6125928382612fb3565b600085815260076020526040902080546001600160a01b0319166001600160a01b0385161781556003016125c68382614088565b5060405185907f1cc4dba30fb427dfa429d5102cfc22ed15cb4e4477ecc5cfdd4fb573d9342c2790600090a2506125fd6001600655565b50505050565b61260b612f2c565b6000828152600760205260409020546001600160a01b031661263f5760405162461bcd60e51b8152600401610b3890613ed4565b816009828154811061265357612653613efa565b9060005260206000200154146126995760405162461bcd60e51b815260206004820152600b60248201526a0aee4dedcce40d2dcc8caf60ab1b6044820152606401610b38565b6005546001600160a01b03163314806126c857506000828152600760205260409020546001600160a01b031633145b6127055760405162461bcd60e51b815260206004820152600e60248201526d139bdd08185d5d1a1bdc9a5e995960921b6044820152606401610b38565b6000828152600760208181526040808420546001600160a01b0316808552848352908420549386905291905261273b9082612fe9565b600083815260076020526040812080546001600160a01b0319168155906127656001830182613560565b61277360028301600061359a565b612781600383016000613560565b50506009805461279390600190614398565b815481106127a3576127a3613efa565b9060005260206000200154600983815481106127c1576127c1613efa565b60009182526020909120015560098054806127de576127de6143ab565b60019003818190600052602060002001600090559055827f97ee67b70c85b955aed3250dd7f214d920a20c3fbf504ae7afb0dc189a3c1a5360405160405180910390a2506112206001600655565b6128353361236a565b6128515760405162461bcd60e51b8152600401610b3890613ed4565b612859612f2c565b865188146128795760405162461bcd60e51b8152600401610b3890613f81565b8188146128c85760405162461bcd60e51b815260206004820152601a60248201527f5369676e617475726573206c656e677468206d69736d617463680000000000006044820152606401610b38565b4284106129175760405162461bcd60e51b815260206004820181905260248201527f53657373696f6e2074696d65206d75737420626520696e2074686520706173746044820152606401610b38565b6000898989898989876040516020016129369796959493929190613fc2565b604051602081830303815290604052805190602001209050600b6000828152602001908152602001600020600101805461296f90613e9a565b1590506129b75760405162461bcd60e51b815260206004820152601660248201527553657373696f6e20616c72656164792065786973747360501b6044820152606401610b38565b6040518061012001604052806000151581526020018381526020018b8b80806020026020016040519081016040528093929190818152602001838360200280828437600092019190915250505090825250602081018a905260408101899052606081018890526080810187905260a0018a6001600160401b03811115612a3f57612a3f613936565b604051908082528060200260200182016040528015612a68578160200160208202803683370190505b50815260006020918201819052838152600b8252604090208251815460ff1916901515178155908201516001820190612aa19082614088565b5060408201518051612abd916002840191602090910190613475565b5060608201518051612ad9916003840191602090910190613475565b506080820151600482015560a0820151600582015560c0820151600682015560e08201518051612b139160078401916020909101906134c0565b50610100820151816008015590505060005b89811015612dbb576000612b4d612b3b84612f56565b878785818110610bf757610bf7613efa565b9050600760008d8d85818110612b6557612b65613efa565b60209081029290920135835250810191909152604001600020546001600160a01b03828116911614612ba95760405162461bcd60e51b8152600401610b3890613f56565b612be28c8c84818110612bbe57612bbe613efa565b905060200201356000908152600760205260409020546001600160a01b0316151590565b612c275760405162461bcd60e51b815260206004820152601660248201527529b4b3b732b91034b9903737ba10309039bab93332b960511b6044820152606401610b38565b600f54600760008e8e86818110612c4057612c40613efa565b905060200201358152602001908152602001600020600201805490501015612ca35760405162461bcd60e51b815260206004820152601660248201527514da59db995c881a5cc81b9bdd08185c1c1c9bdd995960521b6044820152606401610b38565b601154600e54612cb39190614175565b421015612cd25760405162461bcd60e51b8152600401610b3890614188565b612d3e600760008e8e86818110612ceb57612ceb613efa565b60209081029290920135835250810191909152604001600020546001600160a01b0316612d1a6012600a6142b3565b8c8581518110612d2c57612d2c613efa565b60200260200101516114cb91906142c2565b6000838152600b6020526040902060070180546001919084908110612d6557612d65613efa565b6000918252602080832081830401805460ff601f9094166101000a938402191694151592909202939093179055848152600b90915260408120600801805491612dad8361415c565b909155505050600101612b25565b508615612dce57612dce6114f388612187565b8515612e2757612de06012600a6142b3565b612deb9060036142c2565b612df761153c88612187565b1015612e1b57612e16612e0987612187565b5161158261153c89612187565b612e27565b612e2761159c87612187565b42600e556000818152600b6020526040808220805460ff19166001908117909155600c8054918201815583527fdf6966c971051c3d54ec59162606531493a51404a002842f56009d7e5cf4a8c7018390555182917ffce50d447ab76865567b9df14c39fb86eee1bc59f8d5d8c637f1a9d161063e9291a250612ea96001600655565b505050505050505050565b612ebc612eff565b6001600160a01b038116612ee657604051631e4fbdf760e01b815260006004820152602401610b38565b612eef8161301f565b50565b61218283838360016130a1565b6005546001600160a01b0316331461163c5760405163118cdaa760e01b8152336004820152602401610b38565b600260065403612f4f57604051633ee5aeb560e01b815260040160405180910390fd5b6002600655565b7f19457468657265756d205369676e6564204d6573736167653a0a3332000000006000908152601c91909152603c902090565b600080600080612f998686613176565b925092509250612fa982826131c3565b5090949350505050565b6001600160a01b038216612fdd5760405163ec442f0560e01b815260006004820152602401610b38565b6112206000838361327c565b6001600160a01b03821661301357604051634b637e8f60e11b815260006004820152602401610b38565b6112208260008361327c565b600580546001600160a01b038381166001600160a01b0319831681179093556040519116919082907f8be0079c531659141344cd1fd0a4f28419497f9722a3daafe3b4186f6b6457e090600090a35050565b60008160405160200161308491906143c1565b604051602081830303815290604052805190602001209050919050565b6001600160a01b0384166130cb5760405163e602df0560e01b815260006004820152602401610b38565b6001600160a01b0383166130f557604051634a1406b160e11b815260006004820152602401610b38565b6001600160a01b03808516600090815260016020908152604080832093871683529290522082905580156125fd57826001600160a01b0316846001600160a01b03167f8c5be1e5ebec7d5bd14f71427d1e84f3dd0314c0f7b2291e5b200ac8c7c3b9258460405161316891815260200190565b60405180910390a350505050565b600080600083516041036131b05760208401516040850151606086015160001a6131a2888285856133a6565b9550955095505050506131bc565b50508151600091506002905b9250925092565b60008260038111156131d7576131d76143dd565b036131e0575050565b60018260038111156131f4576131f46143dd565b036132125760405163f645eedf60e01b815260040160405180910390fd5b6002826003811115613226576132266143dd565b036132475760405163fce698f760e01b815260048101829052602401610b38565b600382600381111561325b5761325b6143dd565b03611220576040516335e2f38360e21b815260048101829052602401610b38565b6001600160a01b0383166132a757806002600082825461329c9190614175565b909155506133199050565b6001600160a01b038316600090815260208190526040902054818110156132fa5760405163391434e360e21b81526001600160a01b03851660048201526024810182905260448101839052606401610b38565b6001600160a01b03841660009081526020819052604090209082900390555b6001600160a01b03821661333557600280548290039055613354565b6001600160a01b03821660009081526020819052604090208054820190555b816001600160a01b0316836001600160a01b03167fddf252ad1be2c89b69c2b068fc378daa952ba7f163c4a11628f55a4df523b3ef8360405161339991815260200190565b60405180910390a3505050565b600080807f7fffffffffffffffffffffffffffffff5d576e7357a4501ddfe92f46681b20a08411156133e1575060009150600390508261346b565b604080516000808252602082018084528a905260ff891692820192909252606081018790526080810186905260019060a0016020604051602081039080840390855afa158015613435573d6000803e3d6000fd5b5050604051601f1901519150506001600160a01b0381166134615750600092506001915082905061346b565b9250600091508190505b9450945094915050565b8280548282559060005260206000209081019282156134b0579160200282015b828111156134b0578251825591602001919060010190613495565b506134bc9291506135b4565b5090565b82805482825590600052602060002090601f016020900481019282156134b05791602002820160005b8382111561352657835183826101000a81548160ff02191690831515021790555092602001926001016020816000010492830192600103026134e9565b80156135535782816101000a81549060ff0219169055600101602081600001049283019260010302613526565b50506134bc9291506135b4565b50805461356c90613e9a565b6000825580601f1061357c575050565b601f016020900490600052602060002090810190612eef91906135b4565b5080546000825590600052602060002090810190612eef91905b5b808211156134bc57600081556001016135b5565b6000602082840312156135db57600080fd5b5035919050565b60005b838110156135fd5781810151838201526020016135e5565b50506000910152565b6000815180845261361e8160208601602086016135e2565b601f01601f19169290920160200192915050565b600081518084526020840193506020830160005b82811015613664578151865260209586019590910190600101613646565b5093949350505050565b600081518084526020840193506020830160005b828110156136645781511515865260209586019590910190600101613682565b602081526136b560208201835115159052565b6000602083015161012060408401526136d2610140840182613606565b90506040840151601f198483030160608501526136ef8282613632565b9150506060840151601f1984830301608085015261370d8282613632565b915050608084015160a084015260a084015160c084015260c084015160e084015260e0840151601f198483030161010085015261374a828261366e565b9150506101008401516101208401528091505092915050565b6020815260006137766020830184613606565b9392505050565b80356001600160a01b038116811461379457600080fd5b919050565b600080604083850312156137ac57600080fd5b6137b58361377d565b946020939093013593505050565b6020815260006137766020830184613632565b861515815260c0602082015260006137f160c0830188613606565b90508560408301528460608301528360808301528260a0830152979650505050505050565b60008060006060848603121561382b57600080fd5b6138348461377d565b92506138426020850161377d565b929592945050506040919091013590565b60008083601f84011261386557600080fd5b5081356001600160401b0381111561387c57600080fd5b6020830191508360208260051b850101111561389757600080fd5b9250929050565b6000806000806000606086880312156138b657600080fd5b8535945060208601356001600160401b038111156138d357600080fd5b6138df88828901613853565b90955093505060408601356001600160401b038111156138fe57600080fd5b61390a88828901613853565b969995985093965092949392505050565b60006020828403121561392d57600080fd5b6137768261377d565b634e487b7160e01b600052604160045260246000fd5b604051601f8201601f191681016001600160401b038111828210171561397457613974613936565b604052919050565b600082601f83011261398d57600080fd5b81356001600160401b038111156139a6576139a6613936565b8060051b6139b66020820161394c565b918252602081850181019290810190868411156139d257600080fd5b6020860192505b838310156139f45782358252602092830192909101906139d9565b9695505050505050565b600082601f830112613a0f57600080fd5b81356001600160401b03811115613a2857613a28613936565b613a3b601f8201601f191660200161394c565b818152846020838601011115613a5057600080fd5b816020850160208301376000918101602001919091529392505050565b60008060008060008060008060e0898b031215613a8957600080fd5b88356001600160401b03811115613a9f57600080fd5b613aab8b828c01613853565b90995097505060208901356001600160401b03811115613aca57600080fd5b613ad68b828c0161397c565b96505060408901359450606089013593506080890135925060a0890135915060c08901356001600160401b03811115613b0e57600080fd5b613b1a8b828c016139fe565b9150509295985092959890939650565b60008060408385031215613b3d57600080fd5b50508035926020909101359150565b6001600160a01b0385168152608060208201819052600090613b7090830186613606565b8281036040840152613b828186613632565b90508281036060840152613b968185613606565b979650505050505050565b60008060208385031215613bb457600080fd5b82356001600160401b03811115613bca57600080fd5b613bd685828601613853565b90969095509350505050565b6001600160a01b0384168152606060208201819052600090613c0690830185613606565b82810360408401526139f48185613606565b600080600060408486031215613c2d57600080fd5b83356001600160401b03811115613c4357600080fd5b8401601f81018613613c5457600080fd5b80356001600160401b03811115613c6a57600080fd5b866020828401011115613c7c57600080fd5b6020918201945092508401356001600160401b03811115613c9c57600080fd5b613ca8868287016139fe565b9150509250925092565b602080825282516001600160a01b03168282015282015160806040830152600090613ce060a0840182613606565b90506040840151601f19848303016060850152613cfd8282613632565b9150506060840151601f19848303016080850152613d1b8282613606565b95945050505050565b60008060008060808587031215613d3a57600080fd5b8435935060208501359250613d516040860161377d565b915060608501356001600160401b03811115613d6c57600080fd5b613d78878288016139fe565b91505092959194509250565b60008060408385031215613d9757600080fd5b613da08361377d565b9150613dae6020840161377d565b90509250929050565b600080600080600080600080600060e08a8c031215613dd557600080fd5b89356001600160401b03811115613deb57600080fd5b613df78c828d01613853565b909a5098505060208a01356001600160401b03811115613e1657600080fd5b613e228c828d0161397c565b97505060408a0135955060608a0135945060808a0135935060a08a01356001600160401b03811115613e5357600080fd5b613e5f8c828d01613853565b90945092505060c08a01356001600160401b03811115613e7e57600080fd5b613e8a8c828d016139fe565b9150509295985092959850929598565b600181811c90821680613eae57607f821691505b602082108103613ece57634e487b7160e01b600052602260045260246000fd5b50919050565b6020808252600c908201526b2737ba10309039bab93332b960a11b604082015260600190565b634e487b7160e01b600052603260045260246000fd5b6000808335601e19843603018112613f2757600080fd5b8301803591506001600160401b03821115613f4157600080fd5b60200191503681900382131561389757600080fd5b602080825260119082015270496e76616c6964207369676e617475726560781b604082015260600190565b60208082526021908201527f5375726665727320616e64207761766573206c656e677468206d69736d6174636040820152600d60fb1b606082015260800190565b60006001600160fb1b03881115613fd857600080fd5b8760051b808a84378751908301906020890160005b8281101561400b578151845260209384019390910190600101613fed565b50505086815285602082015284604082015283516140308160608401602088016135e2565b016060019998505050505050505050565b601f82111561218257806000526020600020601f840160051c810160208510156140685750805b601f840160051c820191505b81811015610e365760008155600101614074565b81516001600160401b038111156140a1576140a1613936565b6140b5816140af8454613e9a565b84614041565b6020601f8211600181146140e957600083156140d15750848201515b600019600385901b1c1916600184901b178455610e36565b600084815260208120601f198516915b8281101561411957878501518255602094850194600190920191016140f9565b50848210156141375786840151600019600387901b60f8161c191681555b50505050600190811b01905550565b634e487b7160e01b600052601160045260246000fd5b60006001820161416e5761416e614146565b5060010190565b808201808211156109a5576109a5614146565b60208082526024908201527f53657373696f6e2074696d6520696e74657276616c206c696d697420657863656040820152631959195960e21b606082015260800190565b6001815b6001841115614207578085048111156141eb576141eb614146565b60018416156141f957908102905b60019390931c9280026141d0565b935093915050565b60008261421e575060016109a5565b8161422b575060006109a5565b8160018114614241576002811461424b57614267565b60019150506109a5565b60ff84111561425c5761425c614146565b50506001821b6109a5565b5060208310610133831016604e8410600b841016171561428a575081810a6109a5565b61429760001984846141cc565b80600019048211156142ab576142ab614146565b029392505050565b600061377660ff84168361420f565b80820281158282048414176109a5576109a5614146565b6001600160401b038311156142f0576142f0613936565b614304836142fe8354613e9a565b83614041565b6000601f84116001811461433857600085156143205750838201355b600019600387901b1c1916600186901b178355610e36565b600083815260209020601f19861690835b828110156143695786850135825560209485019460019092019101614349565b50868210156143865760001960f88860031b161c19848701351681555b505060018560011b0183555050505050565b818103818111156109a5576109a5614146565b634e487b7160e01b600052603160045260246000fd5b600082516143d38184602087016135e2565b9190910192915050565b634e487b7160e01b600052602160045260246000fdfea2646970667358221220784298e847f61b296821b1e02021843d16bfcea993d7251bd2ba16f65289ea1264736f6c634300081c0033",
  "linkReferences": {},
  "deployedLinkReferences": {}
}