{
  "_format": "hh-sol-artifact-1",
  "contractName": "AlohaToken",
  "sourceName": "contracts/AlohaToken.sol",
  "abi": [
    {
      "inputs": [
        {
          "internalType": "address",
          "name": "initialOwner",
          "type": "address"
        },
        {
          "internalType": "uint256",
          "name": "_minApprovals",
          "type": "uint256"
        },
        {
          "internalType": "uint256",
          "name": "_surferAddTimeInterval",
          "type": "uint256"
        },
        {
          "internalType": "uint256",
          "name": "_sessionAddTimeInterval",
          "type": "uint256"
        },
        {
          "internalType": "address[]",
          "name": "initialSurfersAddresses",
          "type": "address[]"
        },
        {
          "internalType": "string[]",
          "name": "initialSurfersAliases",
          "type": "string[]"
        },
        {
          "internalType": "string[]",
          "name": "initialSurfersOffchainInfoHashes",
          "type": "string[]"
        }
      ],
      "stateMutability": "nonpayable",
      "type": "constructor"
    },
    {
      "inputs": [],
      "name": "ECDSAInvalidSignature",
      "type": "error"
    },
    {
      "inputs": [
        {
          "internalType": "uint256",
          "name": "length",
          "type": "uint256"
        }
      ],
      "name": "ECDSAInvalidSignatureLength",
      "type": "error"
    },
    {
      "inputs": [
        {
          "internalType": "bytes32",
          "name": "s",
          "type": "bytes32"
        }
      ],
      "name": "ECDSAInvalidSignatureS",
      "type": "error"
    },
    {
      "inputs": [
        {
          "internalType": "address",
          "name": "spender",
          "type": "address"
        },
        {
          "internalType": "uint256",
          "name": "allowance",
          "type": "uint256"
        },
        {
          "internalType": "uint256",
          "name": "needed",
          "type": "uint256"
        }
      ],
      "name": "ERC20InsufficientAllowance",
      "type": "error"
    },
    {
      "inputs": [
        {
          "internalType": "address",
          "name": "sender",
          "type": "address"
        },
        {
          "internalType": "uint256",
          "name": "balance",
          "type": "uint256"
        },
        {
          "internalType": "uint256",
          "name": "needed",
          "type": "uint256"
        }
      ],
      "name": "ERC20InsufficientBalance",
      "type": "error"
    },
    {
      "inputs": [
        {
          "internalType": "address",
          "name": "approver",
          "type": "address"
        }
      ],
      "name": "ERC20InvalidApprover",
      "type": "error"
    },
    {
      "inputs": [
        {
          "internalType": "address",
          "name": "receiver",
          "type": "address"
        }
      ],
      "name": "ERC20InvalidReceiver",
      "type": "error"
    },
    {
      "inputs": [
        {
          "internalType": "address",
          "name": "sender",
          "type": "address"
        }
      ],
      "name": "ERC20InvalidSender",
      "type": "error"
    },
    {
      "inputs": [
        {
          "internalType": "address",
          "name": "spender",
          "type": "address"
        }
      ],
      "name": "ERC20InvalidSpender",
      "type": "error"
    },
    {
      "inputs": [
        {
          "internalType": "address",
          "name": "owner",
          "type": "address"
        }
      ],
      "name": "OwnableInvalidOwner",
      "type": "error"
    },
    {
      "inputs": [
        {
          "internalType": "address",
          "name": "account",
          "type": "address"
        }
      ],
      "name": "OwnableUnauthorizedAccount",
      "type": "error"
    },
    {
      "inputs": [],
      "name": "ReentrancyGuardReentrantCall",
      "type": "error"
    },
    {
      "anonymous": false,
      "inputs": [
        {
          "indexed": true,
          "internalType": "address",
          "name": "owner",
          "type": "address"
        },
        {
          "indexed": true,
          "internalType": "address",
          "name": "spender",
          "type": "address"
        },
        {
          "indexed": false,
          "internalType": "uint256",
          "name": "value",
          "type": "uint256"
        }
      ],
      "name": "Approval",
      "type": "event"
    },
    {
      "anonymous": false,
      "inputs": [
        {
          "indexed": true,
          "internalType": "address",
          "name": "previousOwner",
          "type": "address"
        },
        {
          "indexed": true,
          "internalType": "address",
          "name": "newOwner",
          "type": "address"
        }
      ],
      "name": "OwnershipTransferred",
      "type": "event"
    },
    {
      "anonymous": false,
      "inputs": [
        {
          "indexed": true,
          "internalType": "bytes32",
          "name": "sessionHash",
          "type": "bytes32"
        },
        {
          "indexed": true,
          "internalType": "bytes32",
          "name": "surfer",
          "type": "bytes32"
        }
      ],
      "name": "SurfSessionApproved",
      "type": "event"
    },
    {
      "anonymous": false,
      "inputs": [
        {
          "indexed": true,
          "internalType": "bytes32",
          "name": "sessionHash",
          "type": "bytes32"
        }
      ],
      "name": "SurfSessionCreated",
      "type": "event"
    },
    {
      "anonymous": false,
      "inputs": [
        {
          "indexed": true,
          "internalType": "bytes32",
          "name": "sessionHash",
          "type": "bytes32"
        }
      ],
      "name": "SurfSessionFinalized",
      "type": "event"
    },
    {
      "anonymous": false,
      "inputs": [
        {
          "indexed": true,
          "internalType": "bytes32",
          "name": "surferID",
          "type": "bytes32"
        }
      ],
      "name": "SurferAdded",
      "type": "event"
    },
    {
      "anonymous": false,
      "inputs": [
        {
          "indexed": true,
          "internalType": "bytes32",
          "name": "fromID",
          "type": "bytes32"
        },
        {
          "indexed": true,
          "internalType": "bytes32",
          "name": "toID",
          "type": "bytes32"
        }
      ],
      "name": "SurferApproved",
      "type": "event"
    },
    {
      "anonymous": false,
      "inputs": [
        {
          "indexed": true,
          "internalType": "bytes32",
          "name": "surfer",
          "type": "bytes32"
        }
      ],
      "name": "SurferDeleted",
      "type": "event"
    },
    {
      "anonymous": false,
      "inputs": [
        {
          "indexed": true,
          "internalType": "bytes32",
          "name": "surfer",
          "type": "bytes32"
        }
      ],
      "name": "SurferEdited",
      "type": "event"
    },
    {
      "anonymous": false,
      "inputs": [
        {
          "indexed": true,
          "internalType": "address",
          "name": "from",
          "type": "address"
        },
        {
          "indexed": true,
          "internalType": "address",
          "name": "to",
          "type": "address"
        },
        {
          "indexed": false,
          "internalType": "uint256",
          "name": "value",
          "type": "uint256"
        }
      ],
      "name": "Transfer",
      "type": "event"
    },
    {
      "inputs": [
        {
          "internalType": "bytes32[]",
          "name": "sessionSurfers",
          "type": "bytes32[]"
        },
        {
          "internalType": "uint256[]",
          "name": "waves",
          "type": "uint256[]"
        },
        {
          "internalType": "bytes32",
          "name": "bestWaveSurfer",
          "type": "bytes32"
        },
        {
          "internalType": "bytes32",
          "name": "kookSurfer",
          "type": "bytes32"
        },
        {
          "internalType": "uint256",
          "name": "sessionTime",
          "type": "uint256"
        },
        {
          "internalType": "string",
          "name": "offchainInfoHash",
          "type": "string"
        }
      ],
      "name": "addSurfSession",
      "outputs": [],
      "stateMutability": "nonpayable",
      "type": "function"
    },
    {
      "inputs": [
        {
          "internalType": "bytes32[]",
          "name": "sessionSurfers",
          "type": "bytes32[]"
        },
        {
          "internalType": "uint256[]",
          "name": "waves",
          "type": "uint256[]"
        },
        {
          "internalType": "bytes32",
          "name": "bestWaveSurfer",
          "type": "bytes32"
        },
        {
          "internalType": "bytes32",
          "name": "kookSurfer",
          "type": "bytes32"
        },
        {
          "internalType": "uint256",
          "name": "sessionTime",
          "type": "uint256"
        },
        {
          "internalType": "bytes[]",
          "name": "signatures",
          "type": "bytes[]"
        },
        {
          "internalType": "string",
          "name": "offchainInfoHash",
          "type": "string"
        }
      ],
      "name": "addSurfSessionWithSignatures",
      "outputs": [],
      "stateMutability": "nonpayable",
      "type": "function"
    },
    {
      "inputs": [
        {
          "internalType": "string",
          "name": "surferAlias",
          "type": "string"
        },
        {
          "internalType": "string",
          "name": "offchainInfoHash",
          "type": "string"
        }
      ],
      "name": "addSurfer",
      "outputs": [],
      "stateMutability": "nonpayable",
      "type": "function"
    },
    {
      "inputs": [
        {
          "internalType": "address",
          "name": "owner",
          "type": "address"
        },
        {
          "internalType": "address",
          "name": "spender",
          "type": "address"
        }
      ],
      "name": "allowance",
      "outputs": [
        {
          "internalType": "uint256",
          "name": "",
          "type": "uint256"
        }
      ],
      "stateMutability": "view",
      "type": "function"
    },
    {
      "inputs": [
        {
          "internalType": "bytes32",
          "name": "",
          "type": "bytes32"
        },
        {
          "internalType": "bytes32",
          "name": "",
          "type": "bytes32"
        }
      ],
      "name": "approvals",
      "outputs": [
        {
          "internalType": "bool",
          "name": "",
          "type": "bool"
        }
      ],
      "stateMutability": "view",
      "type": "function"
    },
    {
      "inputs": [
        {
          "internalType": "address",
          "name": "spender",
          "type": "address"
        },
        {
          "internalType": "uint256",
          "name": "value",
          "type": "uint256"
        }
      ],
      "name": "approve",
      "outputs": [
        {
          "internalType": "bool",
          "name": "",
          "type": "bool"
        }
      ],
      "stateMutability": "nonpayable",
      "type": "function"
    },
    {
      "inputs": [
        {
          "internalType": "bytes32",
          "name": "surfSessionHash",
          "type": "bytes32"
        },
        {
          "internalType": "uint256",
          "name": "surferApprovalIndex",
          "type": "uint256"
        }
      ],
      "name": "approveSurfSession",
      "outputs": [],
      "stateMutability": "nonpayable",
      "type": "function"
    },
    {
      "inputs": [
        {
          "internalType": "bytes32",
          "name": "surfSessionHash",
          "type": "bytes32"
        },
        {
          "internalType": "uint256[]",
          "name": "surferApprovalIndexes",
          "type": "uint256[]"
        },
        {
          "internalType": "bytes[]",
          "name": "signatures",
          "type": "bytes[]"
        }
      ],
      "name": "approveSurfSessionWithSignatures",
      "outputs": [],
      "stateMutability": "nonpayable",
      "type": "function"
    },
    {
      "inputs": [
        {
          "internalType": "bytes32",
          "name": "surferIDToApprove",
          "type": "bytes32"
        },
        {
          "internalType": "address[]",
          "name": "signers",
          "type": "address[]"
        },
        {
          "internalType": "bytes[]",
          "name": "signatures",
          "type": "bytes[]"
        }
      ],
      "name": "approveSurferWithSignatures",
      "outputs": [],
      "stateMutability": "nonpayable",
      "type": "function"
    },
    {
      "inputs": [
        {
          "internalType": "bytes32[]",
          "name": "surferIDsToApprove",
          "type": "bytes32[]"
        }
      ],
      "name": "approveSurfers",
      "outputs": [],
      "stateMutability": "nonpayable",
      "type": "function"
    },
    {
      "inputs": [
        {
          "internalType": "address",
          "name": "account",
          "type": "address"
        }
      ],
      "name": "balanceOf",
      "outputs": [
        {
          "internalType": "uint256",
          "name": "",
          "type": "uint256"
        }
      ],
      "stateMutability": "view",
      "type": "function"
    },
    {
      "inputs": [
        {
          "internalType": "address",
          "name": "to",
          "type": "address"
        },
        {
          "internalType": "uint256",
          "name": "amount",
          "type": "uint256"
        }
      ],
      "name": "burn",
      "outputs": [],
      "stateMutability": "nonpayable",
      "type": "function"
    },
    {
      "inputs": [],
      "name": "decimals",
      "outputs": [
        {
          "internalType": "uint8",
          "name": "",
          "type": "uint8"
        }
      ],
      "stateMutability": "view",
      "type": "function"
    },
    {
      "inputs": [
        {
          "internalType": "bytes32",
          "name": "surferID",
          "type": "bytes32"
        },
        {
          "internalType": "uint256",
          "name": "i",
          "type": "uint256"
        }
      ],
      "name": "deleteSurfer",
      "outputs": [],
      "stateMutability": "nonpayable",
      "type": "function"
    },
    {
      "inputs": [
        {
          "internalType": "bytes32",
          "name": "surferID",
          "type": "bytes32"
        },
        {
          "internalType": "uint256",
          "name": "i",
          "type": "uint256"
        },
        {
          "internalType": "address",
          "name": "newAddress",
          "type": "address"
        },
        {
          "internalType": "string",
          "name": "newOffchainInfoHash",
          "type": "string"
        }
      ],
      "name": "editSurfer",
      "outputs": [],
      "stateMutability": "nonpayable",
      "type": "function"
    },
    {
      "inputs": [
        {
          "internalType": "bytes32",
          "name": "sessionHash",
          "type": "bytes32"
        }
      ],
      "name": "getSurfSession",
      "outputs": [
        {
          "components": [
            {
              "internalType": "bool",
              "name": "approved",
              "type": "bool"
            },
            {
              "internalType": "string",
              "name": "offchainInfoHash",
              "type": "string"
            },
            {
              "internalType": "bytes32[]",
              "name": "surfers",
              "type": "bytes32[]"
            },
            {
              "internalType": "uint256[]",
              "name": "waves",
              "type": "uint256[]"
            },
            {
              "internalType": "bytes32",
              "name": "bestWaveSurfer",
              "type": "bytes32"
            },
            {
              "internalType": "bytes32",
              "name": "kookSurfer",
              "type": "bytes32"
            },
            {
              "internalType": "uint256",
              "name": "sessionTime",
              "type": "uint256"
            },
            {
              "internalType": "bool[]",
              "name": "approvals",
              "type": "bool[]"
            },
            {
              "internalType": "uint256",
              "name": "totalApprovals",
              "type": "uint256"
            }
          ],
          "internalType": "struct AlohaToken.SurfSession",
          "name": "",
          "type": "tuple"
        }
      ],
      "stateMutability": "view",
      "type": "function"
    },
    {
      "inputs": [],
      "name": "getSurfSessions",
      "outputs": [
        {
          "internalType": "bytes32[]",
          "name": "",
          "type": "bytes32[]"
        }
      ],
      "stateMutability": "view",
      "type": "function"
    },
    {
      "inputs": [
        {
          "internalType": "bytes32",
          "name": "surferId",
          "type": "bytes32"
        }
      ],
      "name": "getSurfer",
      "outputs": [
        {
          "internalType": "address",
          "name": "owner",
          "type": "address"
        },
        {
          "internalType": "string",
          "name": "surferAlias",
          "type": "string"
        },
        {
          "internalType": "bytes32[]",
          "name": "surferApprovals",
          "type": "bytes32[]"
        },
        {
          "internalType": "string",
          "name": "offchainInfoHash",
          "type": "string"
        }
      ],
      "stateMutability": "view",
      "type": "function"
    },
    {
      "inputs": [
        {
          "internalType": "bytes32",
          "name": "fromID",
          "type": "bytes32"
        },
        {
          "internalType": "bytes32",
          "name": "toID",
          "type": "bytes32"
        }
      ],
      "name": "getSurferApproval",
      "outputs": [
        {
          "internalType": "bool",
          "name": "",
          "type": "bool"
        }
      ],
      "stateMutability": "view",
      "type": "function"
    },
    {
      "inputs": [
        {
          "internalType": "bytes32",
          "name": "surferId",
          "type": "bytes32"
        }
      ],
      "name": "getSurferByID",
      "outputs": [
        {
          "components": [
            {
              "internalType": "address",
              "name": "owner",
              "type": "address"
            },
            {
              "internalType": "string",
              "name": "surferAlias",
              "type": "string"
            },
            {
              "internalType": "bytes32[]",
              "name": "approvals",
              "type": "bytes32[]"
            },
            {
              "internalType": "string",
              "name": "offchainInfoHash",
              "type": "string"
            }
          ],
          "internalType": "struct AlohaToken.Surfer",
          "name": "info",
          "type": "tuple"
        }
      ],
      "stateMutability": "view",
      "type": "function"
    },
    {
      "inputs": [],
      "name": "getSurferList",
      "outputs": [
        {
          "internalType": "bytes32[]",
          "name": "",
          "type": "bytes32[]"
        }
      ],
      "stateMutability": "view",
      "type": "function"
    },
    {
      "inputs": [],
      "name": "getSurfersList",
      "outputs": [
        {
          "internalType": "bytes32[]",
          "name": "",
          "type": "bytes32[]"
        }
      ],
      "stateMutability": "view",
      "type": "function"
    },
    {
      "inputs": [
        {
          "internalType": "address",
          "name": "surferAddress",
          "type": "address"
        }
      ],
      "name": "isSurferByAddress",
      "outputs": [
        {
          "internalType": "bool",
          "name": "",
          "type": "bool"
        }
      ],
      "stateMutability": "view",
      "type": "function"
    },
    {
      "inputs": [
        {
          "internalType": "bytes32",
          "name": "surferID",
          "type": "bytes32"
        }
      ],
      "name": "isSurferByID",
      "outputs": [
        {
          "internalType": "bool",
          "name": "",
          "type": "bool"
        }
      ],
      "stateMutability": "view",
      "type": "function"
    },
    {
      "inputs": [],
      "name": "lastSessionTime",
      "outputs": [
        {
          "internalType": "uint256",
          "name": "",
          "type": "uint256"
        }
      ],
      "stateMutability": "view",
      "type": "function"
    },
    {
      "inputs": [],
      "name": "lastSurferAdded",
      "outputs": [
        {
          "internalType": "uint256",
          "name": "",
          "type": "uint256"
        }
      ],
      "stateMutability": "view",
      "type": "function"
    },
    {
      "inputs": [],
      "name": "minApprovals",
      "outputs": [
        {
          "internalType": "uint256",
          "name": "",
          "type": "uint256"
        }
      ],
      "stateMutability": "view",
      "type": "function"
    },
    {
      "inputs": [
        {
          "internalType": "address",
          "name": "to",
          "type": "address"
        },
        {
          "internalType": "uint256",
          "name": "amount",
          "type": "uint256"
        }
      ],
      "name": "mint",
      "outputs": [],
      "stateMutability": "nonpayable",
      "type": "function"
    },
    {
      "inputs": [],
      "name": "name",
      "outputs": [
        {
          "internalType": "string",
          "name": "",
          "type": "string"
        }
      ],
      "stateMutability": "view",
      "type": "function"
    },
    {
      "inputs": [],
      "name": "owner",
      "outputs": [
        {
          "internalType": "address",
          "name": "",
          "type": "address"
        }
      ],
      "stateMutability": "view",
      "type": "function"
    },
    {
      "inputs": [],
      "name": "renounceOwnership",
      "outputs": [],
      "stateMutability": "nonpayable",
      "type": "function"
    },
    {
      "inputs": [],
      "name": "sessionAddTimeInterval",
      "outputs": [
        {
          "internalType": "uint256",
          "name": "",
          "type": "uint256"
        }
      ],
      "stateMutability": "view",
      "type": "function"
    },
    {
      "inputs": [
        {
          "internalType": "uint256",
          "name": "newMinApprovals",
          "type": "uint256"
        }
      ],
      "name": "setMinApprovals",
      "outputs": [],
      "stateMutability": "nonpayable",
      "type": "function"
    },
    {
      "inputs": [
        {
          "internalType": "uint256",
          "name": "newSessionAddTimeInterval",
          "type": "uint256"
        }
      ],
      "name": "setSessionAddTimeInterval",
      "outputs": [],
      "stateMutability": "nonpayable",
      "type": "function"
    },
    {
      "inputs": [
        {
          "internalType": "uint256",
          "name": "newSurferAddInterval",
          "type": "uint256"
        }
      ],
      "name": "setSurferAddInterval",
      "outputs": [],
      "stateMutability": "nonpayable",
      "type": "function"
    },
    {
      "inputs": [
        {
          "internalType": "bytes32",
          "name": "",
          "type": "bytes32"
        }
      ],
      "name": "surfSessions",
      "outputs": [
        {
          "internalType": "bool",
          "name": "approved",
          "type": "bool"
        },
        {
          "internalType": "string",
          "name": "offchainInfoHash",
          "type": "string"
        },
        {
          "internalType": "bytes32",
          "name": "bestWaveSurfer",
          "type": "bytes32"
        },
        {
          "internalType": "bytes32",
          "name": "kookSurfer",
          "type": "bytes32"
        },
        {
          "internalType": "uint256",
          "name": "sessionTime",
          "type": "uint256"
        },
        {
          "internalType": "uint256",
          "name": "totalApprovals",
          "type": "uint256"
        }
      ],
      "stateMutability": "view",
      "type": "function"
    },
    {
      "inputs": [
        {
          "internalType": "uint256",
          "name": "",
          "type": "uint256"
        }
      ],
      "name": "surfSessionsList",
      "outputs": [
        {
          "internalType": "bytes32",
          "name": "",
          "type": "bytes32"
        }
      ],
      "stateMutability": "view",
      "type": "function"
    },
    {
      "inputs": [],
      "name": "surferAddTimeInterval",
      "outputs": [
        {
          "internalType": "uint256",
          "name": "",
          "type": "uint256"
        }
      ],
      "stateMutability": "view",
      "type": "function"
    },
    {
      "inputs": [
        {
          "internalType": "address",
          "name": "",
          "type": "address"
        }
      ],
      "name": "surferIDByAddress",
      "outputs": [
        {
          "internalType": "bytes32",
          "name": "",
          "type": "bytes32"
        }
      ],
      "stateMutability": "view",
      "type": "function"
    },
    {
      "inputs": [
        {
          "internalType": "bytes32",
          "name": "",
          "type": "bytes32"
        }
      ],
      "name": "surfers",
      "outputs": [
        {
          "internalType": "address",
          "name": "owner",
          "type": "address"
        },
        {
          "internalType": "string",
          "name": "surferAlias",
          "type": "string"
        },
        {
          "internalType": "string",
          "name": "offchainInfoHash",
          "type": "string"
        }
      ],
      "stateMutability": "view",
      "type": "function"
    },
    {
      "inputs": [
        {
          "internalType": "uint256",
          "name": "",
          "type": "uint256"
        }
      ],
      "name": "surfersList",
      "outputs": [
        {
          "internalType": "bytes32",
          "name": "",
          "type": "bytes32"
        }
      ],
      "stateMutability": "view",
      "type": "function"
    },
    {
      "inputs": [],
      "name": "symbol",
      "outputs": [
        {
          "internalType": "string",
          "name": "",
          "type": "string"
        }
      ],
      "stateMutability": "view",
      "type": "function"
    },
    {
      "inputs": [],
      "name": "totalSupply",
      "outputs": [
        {
          "internalType": "uint256",
          "name": "",
          "type": "uint256"
        }
      ],
      "stateMutability": "view",
      "type": "function"
    },
    {
      "inputs": [
        {
          "internalType": "address",
          "name": "to",
          "type": "address"
        },
        {
          "internalType": "uint256",
          "name": "value",
          "type": "uint256"
        }
      ],
      "name": "transfer",
      "outputs": [
        {
          "internalType": "bool",
          "name": "",
          "type": "bool"
        }
      ],
      "stateMutability": "nonpayable",
      "type": "function"
    },
    {
      "inputs": [
        {
          "internalType": "address",
          "name": "from",
          "type": "address"
        },
        {
          "internalType": "address",
          "name": "to",
          "type": "address"
        },
        {
          "internalType": "uint256",
          "name": "value",
          "type": "uint256"
        }
      ],
      "name": "transferFrom",
      "outputs": [
        {
          "internalType": "bool",
          "name": "",
          "type": "bool"
        }
      ],
      "stateMutability": "nonpayable",
      "type": "function"
    },
    {
      "inputs": [
        {
          "internalType": "address",
          "name": "newOwner",
          "type": "address"
        }
      ],
      "name": "transferOwnership",
      "outputs": [],
      "stateMutability": "nonpayable",
      "type": "function"
    }
  ],
  "bytecode": "0x608060405234801561001057600080fd5b50604051614b49380380614b4983398101604081905261002f91610479565b8660405180604001604052806005815260200164416c6f686160d81b8152506040518060400160405280600381526020016208298960eb1b81525081600390816100799190610627565b5060046100868282610627565b5050506001600160a01b0381166100b757604051631e4fbdf760e01b81526000600482015260240160405180910390fd5b6100c081610265565b506001600655600f8690556010859055601184905560005b835181101561025857600061010b8483815181106100f8576100f86106e5565b60200260200101516102b760201b60201c565b905084828151811061011f5761011f6106e5565b60200260200101516007600083815260200190815260200160002060000160006101000a8154816001600160a01b0302191690836001600160a01b03160217905550838281518110610173576101736106e5565b602002602001015160076000838152602001908152602001600020600101908161019d9190610627565b508282815181106101b0576101b06106e5565b60200260200101516007600083815260200190815260200160002060030190816101da9190610627565b5080600860008785815181106101f2576101f26106e5565b6020908102919091018101516001600160a01b031682528101919091526040016000908120919091556009805460018181018355919092527f6e1540171b6c0c960b71a7020d9f60077f6af931a8bbf590da0223dacf75c7af90910191909155016100d8565b5050505050505050610717565b600580546001600160a01b038381166001600160a01b0319831681179093556040519116919082907f8be0079c531659141344cd1fd0a4f28419497f9722a3daafe3b4186f6b6457e090600090a35050565b6000816040516020016102ca91906106fb565b604051602081830303815290604052805190602001209050919050565b80516001600160a01b03811681146102fe57600080fd5b919050565b634e487b7160e01b600052604160045260246000fd5b604051601f8201601f191681016001600160401b038111828210171561034157610341610303565b604052919050565b60006001600160401b0382111561036257610362610303565b5060051b60200190565b60005b8381101561038757818101518382015260200161036f565b50506000910152565b600082601f8301126103a157600080fd5b81516103b46103af82610349565b610319565b8082825260208201915060208360051b8601019250858311156103d657600080fd5b602085015b8381101561046f5780516001600160401b038111156103f957600080fd5b8601603f8101881361040a57600080fd5b60208101516001600160401b0381111561042657610426610303565b610439601f8201601f1916602001610319565b8181526040838301018a101561044e57600080fd5b61045f82602083016040860161036c565b85525050602092830192016103db565b5095945050505050565b600080600080600080600060e0888a03121561049457600080fd5b61049d886102e7565b602089015160408a015160608b015160808c0151939a50919850965094506001600160401b038111156104cf57600080fd5b8801601f81018a136104e057600080fd5b80516104ee6103af82610349565b8082825260208201915060208360051b85010192508c83111561051057600080fd5b6020840193505b8284101561053957610528846102e7565b825260209384019390910190610517565b60a08c0151909650925050506001600160401b0381111561055957600080fd5b6105658a828b01610390565b60c08a015190935090506001600160401b0381111561058357600080fd5b61058f8a828b01610390565b91505092959891949750929550565b600181811c908216806105b257607f821691505b6020821081036105d257634e487b7160e01b600052602260045260246000fd5b50919050565b601f82111561062257806000526020600020601f840160051c810160208510156105ff5750805b601f840160051c820191505b8181101561061f576000815560010161060b565b50505b505050565b81516001600160401b0381111561064057610640610303565b6106548161064e845461059e565b846105d8565b6020601f82116001811461068857600083156106705750848201515b600019600385901b1c1916600184901b17845561061f565b600084815260208120601f198516915b828110156106b85787850151825560209485019460019092019101610698565b50848210156106d65786840151600019600387901b60f8161c191681555b50505050600190811b01905550565b634e487b7160e01b600052603260045260246000fd5b6000825161070d81846020870161036c565b9190910192915050565b614423806107266000396000f3fe608060405234801561001057600080fd5b506004361061028a5760003560e01c80638793efe71161015c578063b53738e6116100ce578063dd62ed3e11610087578063dd62ed3e14610600578063de2de4de14610639578063e980690414610667578063f2fde38b1461067a578063f5c7cd481461068d578063f7e8fd7b1461032f57600080fd5b8063b53738e6146105b7578063b90b4256146105c0578063c322eb71146105c8578063c5915704146105db578063cf0902af146105ee578063d8309706146105f757600080fd5b80639dc29fac116101205780639dc29fac1461052e578063a4dbf83514610541578063a50b75cc14610563578063a9059cbb14610576578063ad12b21914610584578063b0054335146105a457600080fd5b80638793efe7146104b75780638da5cb5b146104ca5780638faaed28146104e557806393a4943d1461051357806395d89b411461052657600080fd5b80632f5b06eb1161020057806370a08231116101b957806370a082311461042a578063713da85214610453578063715018a61461046657806371bb2c531461046e5780637e9c3d9614610481578063848b531c146104a457600080fd5b80632f5b06eb14610397578063313ce567146103b757806331f7312e146103c657806340c10f19146103d95780634819d8fc146103ec57806357dd3bd31461041757600080fd5b806311aa83411161025257806311aa83411461031c57806311e825281461032f57806318160ddd14610344578063188c032c1461034c57806323b872dd146103715780632b7de34e1461038457600080fd5b80630127a7fb1461028f57806306fdde03146102b8578063095ea7b3146102cd5780630aa90040146102f05780631179559614610305575b600080fd5b6102a261029d3660046135cc565b610696565b6040516102af91906136a5565b60405180910390f35b6102c06108ff565b6040516102af9190613766565b6102e06102db36600461379c565b610991565b60405190151581526020016102af565b6103036102fe3660046135cc565b6109ab565b005b61030e60105481565b6040519081526020016102af565b61030e61032a3660046135cc565b6109b8565b6103376109d9565b6040516102af91906137c6565b60025461030e565b61035f61035a3660046135cc565b610a30565b6040516102af969594939291906137d9565b6102e061037f366004613819565b610af1565b6103036103923660046138a1565b610b41565b61030e6103a536600461391e565b60086020526000908152604090205481565b604051601281526020016102af565b61030e6103d43660046135cc565b610e3d565b6103036103e736600461379c565b610e4d565b6102e06103fa3660046135cc565b6000908152600760205260409020546001600160a01b0316151590565b6103036104253660046135cc565b610e63565b61030e61043836600461391e565b6001600160a01b031660009081526020819052604090205490565b610303610461366004613939565b610e70565b610303611269565b61030361047c3660046138a1565b61127d565b61049461048f3660046135cc565b611646565b6040516102af949392919061395b565b6103036104b23660046139b0565b6117f4565b6103036104c53660046135cc565b6119f6565b6005546040516001600160a01b0390911681526020016102af565b6102e06104f3366004613939565b6000918252600a6020908152604080842092845291905290205460ff1690565b610303610521366004613b28565b611a03565b6102c0611dc7565b61030361053c36600461379c565b611dd6565b61055461054f3660046135cc565b611de8565b6040516102af93929190613bdc565b610303610571366004613c12565b611f25565b6102e061037f36600461379c565b6105976105923660046135cc565b61218a565b6040516102af9190613cac565b6102e06105b236600461391e565b61236d565b61030e600d5481565b61033761238a565b6103036105d6366004613d1e565b6123e0565b6103036105e9366004613939565b612606565b61030e600e5481565b61030e600f5481565b61030e61060e366004613d7e565b6001600160a01b03918216600090815260016020908152604080832093909416825291909152205490565b6102e0610647366004613939565b600a60209081526000928352604080842090915290825290205460ff1681565b610303610675366004613db1565b61282f565b61030361068836600461391e565b612eb7565b61030e60115481565b6106ed60405180610120016040528060001515815260200160608152602001606081526020016060815260200160008019168152602001600080191681526020016000815260200160608152602001600081525090565b6000828152600b602090815260409182902082516101208101909352805460ff1615158352600181018054919284019161072690613e94565b80601f016020809104026020016040519081016040528092919081815260200182805461075290613e94565b801561079f5780601f106107745761010080835404028352916020019161079f565b820191906000526020600020905b81548152906001019060200180831161078257829003601f168201915b50505050508152602001600282018054806020026020016040519081016040528092919081815260200182805480156107f757602002820191906000526020600020905b8154815260200190600101908083116107e3575b505050505081526020016003820180548060200260200160405190810160405280929190818152602001828054801561084f57602002820191906000526020600020905b81548152602001906001019080831161083b575b50505050508152602001600482015481526020016005820154815260200160068201548152602001600782018054806020026020016040519081016040528092919081815260200182805480156108e557602002820191906000526020600020906000905b825461010083900a900460ff1615158152602060019283018181049485019490930390920291018084116108b45790505b505050505081526020016008820154815250509050919050565b60606003805461090e90613e94565b80601f016020809104026020016040519081016040528092919081815260200182805461093a90613e94565b80156109875780601f1061095c57610100808354040283529160200191610987565b820191906000526020600020905b81548152906001019060200180831161096a57829003601f168201915b5050505050905090565b60003361099f818585612ef5565b60019150505b92915050565b6109b3612f02565b600f55565b600981815481106109c857600080fd5b600091825260209091200154905081565b6060600980548060200260200160405190810160405280929190818152602001828054801561098757602002820191906000526020600020905b815481526020019060010190808311610a13575050505050905090565b600b602052600090815260409020805460018201805460ff9092169291610a5690613e94565b80601f0160208091040260200160405190810160405280929190818152602001828054610a8290613e94565b8015610acf5780601f10610aa457610100808354040283529160200191610acf565b820191906000526020600020905b815481529060010190602001808311610ab257829003601f168201915b5050505050908060040154908060050154908060060154908060080154905086565b60405162461bcd60e51b815260206004820152601960248201527f546f6b656e206973206e6f6e2d7472616e7366657261626c650000000000000060448201526000906064015b60405180910390fd5b610b4a3361236d565b610b665760405162461bcd60e51b8152600401610b3890613ece565b610b6e612f2f565b828114610bcc5760405162461bcd60e51b815260206004820152602660248201527f5369676e65727320616e64207369676e617475726573206c656e677468206d696044820152650e6dac2e8c6d60d31b6064820152608401610b38565b60005b83811015610e2b576000610c43610be588612f59565b858585818110610bf757610bf7613ef4565b9050602002810190610c099190613f0a565b8080601f016020809104026020016040519081016040528093929190818152602001838380828437600092019190915250612f8c92505050565b9050600060086000888886818110610c5d57610c5d613ef4565b9050602002016020810190610c72919061391e565b6001600160a01b03166001600160a01b03168152602001908152602001600020549050868684818110610ca757610ca7613ef4565b9050602002016020810190610cbc919061391e565b6001600160a01b0316826001600160a01b031614610cec5760405162461bcd60e51b8152600401610b3890613f50565b610cf58261236d565b610d3a5760405162461bcd60e51b815260206004820152601660248201527529b4b3b732b91034b9903737ba10309039bab93332b960511b6044820152606401610b38565b6000818152600a602090815260408083208b845290915290205460ff1615610da45760405162461bcd60e51b815260206004820152601f60248201527f416c726561647920617070726f766564206279207468697320737572666572006044820152606401610b38565b6000818152600a602090815260408083208b84528252808320805460ff1916600190811790915560078352818420600201805491820181558452828420018490556001600160a01b038516835260089091528082205490518a927f719ade0a42317292b9d5bfe63456c7ba1db67cbe585f23d5eb3fbf5f66bf324691a35050600101610bcf565b50610e366001600655565b5050505050565b600c81815481106109c857600080fd5b610e55612f02565b610e5f8282612fb6565b5050565b610e6b612f02565b601055565b610e793361236d565b610e955760405162461bcd60e51b8152600401610b3890613ece565b610e9d612f2f565b6000828152600b60205260408120600281018054919233926007929086908110610ec957610ec9613ef4565b600091825260208083209091015483528201929092526040019020546001600160a01b031614610f3b5760405162461bcd60e51b815260206004820152601b60248201527f4e6f7420612073757266657220696e207468652073657373696f6e00000000006044820152606401610b38565b806007018281548110610f5057610f50613ef4565b90600052602060002090602091828204019190069054906101000a900460ff1615610fb05760405162461bcd60e51b815260206004820152601060248201526f105b1c9958591e48185c1c1c9bdd995960821b6044820152606401610b38565b6001816007018381548110610fc757610fc7613ef4565b90600052602060002090602091828204019190066101000a81548160ff02191690831515021790555080600801600081548092919061100590613f91565b919050555080600201828154811061101f5761101f613ef4565b9060005260206000200154837f1dc0a49657e7090fb6f943e323037571fab29e291a7720e78742c1188f7dd17360405160405180910390a3600281015460088201540361125e57601154600e546110769190613faa565b4210156110955760405162461bcd60e51b8152600401610b3890613fbd565b42600e5560005b60028201548110156111175761110f6110d38360020183815481106110c3576110c3613ef4565b906000526020600020015461218a565b516110e06012600a6140e8565b8460030184815481106110f5576110f5613ef4565b906000526020600020015461110a91906140f7565b612fb6565b60010161109c565b5060048101541561114a5761114a611132826004015461218a565b5161113f6012600a6140e8565b61110a9060056140f7565b6005810154156111f3576111606012600a6140e8565b61116b9060036140f7565b61119761117b836005015461218a565b516001600160a01b031660009081526020819052604090205490565b10156111cb576111c66111ad826005015461218a565b600001516111c161117b846005015461218a565b612fec565b6111f3565b6111f36111db826005015461218a565b516111e86012600a6140e8565b6111c19060036140f7565b805460ff191660019081178255600c8054918201815560009081527fdf6966c971051c3d54ec59162606531493a51404a002842f56009d7e5cf4a8c790910184905560405184917ffce50d447ab76865567b9df14c39fb86eee1bc59f8d5d8c637f1a9d161063e9291a25b50610e5f6001600655565b611271612f02565b61127b6000613022565b565b6112863361236d565b6112a25760405162461bcd60e51b8152600401610b3890613ece565b6112aa612f2f565b8083146112f95760405162461bcd60e51b815260206004820152601a60248201527f5369676e617475726573206c656e677468206d69736d617463680000000000006044820152606401610b38565b6000858152600b60205260408120905b848110156114e557600061133161131f89612f59565b868685818110610bf757610bf7613ef4565b905060006113658460020189898681811061134e5761134e613ef4565b90506020020135815481106110c3576110c3613ef4565b905080600001516001600160a01b0316826001600160a01b03161461139c5760405162461bcd60e51b8152600401610b3890613f50565b600f5481604001515110156113ec5760405162461bcd60e51b815260206004820152601660248201527514da59db995c881a5cc81b9bdd08185c1c1c9bdd995960521b6044820152606401610b38565b6000898152600b6020526040902060019060070189898681811061141257611412613ef4565b905060200201358154811061142957611429613ef4565b6000918252602080832081830401805460ff601f9094166101000a9384021916941515929092029390931790558a8152600b9091526040812060080180549161147183613f91565b91905055508360020188888581811061148c5761148c613ef4565b90506020020135815481106114a3576114a3613ef4565b9060005260206000200154897f1dc0a49657e7090fb6f943e323037571fab29e291a7720e78742c1188f7dd17360405160405180910390a35050600101611309565b506002810154600882015403610e2b57601154600e546115059190613faa565b4210156115245760405162461bcd60e51b8152600401610b3890613fbd565b42600e5560005b600282015481101561155a576115526110d38360020183815481106110c3576110c3613ef4565b60010161152b565b5060048101541561157557611575611132826004015461218a565b6005810154156115d15761158b6012600a6140e8565b6115969060036140f7565b6115a661117b836005015461218a565b10156115c1576115bc6111ad826005015461218a565b6115d1565b6115d16111db826005015461218a565b805460ff191660019081178255600c8054918201815560009081527fdf6966c971051c3d54ec59162606531493a51404a002842f56009d7e5cf4a8c790910187905560405187917ffce50d447ab76865567b9df14c39fb86eee1bc59f8d5d8c637f1a9d161063e9291a250610e366001600655565b60008181526007602052604081208054600182018054606093849384936001600160a01b039091169290916002810191600390910190839061168790613e94565b80601f01602080910402602001604051908101604052809291908181526020018280546116b390613e94565b80156117005780601f106116d557610100808354040283529160200191611700565b820191906000526020600020905b8154815290600101906020018083116116e357829003601f168201915b505050505092508180548060200260200160405190810160405280929190818152602001828054801561175257602002820191906000526020600020905b81548152602001906001019080831161173e575b5050505050915080805461176590613e94565b80601f016020809104026020016040519081016040528092919081815260200182805461179190613e94565b80156117de5780601f106117b3576101008083540402835291602001916117de565b820191906000526020600020905b8154815290600101906020018083116117c157829003601f168201915b5050505050905093509350935093509193509193565b6117fd3361236d565b6118195760405162461bcd60e51b8152600401610b3890613ece565b611821612f2f565b33600090815260086020526040902054816118755760405162461bcd60e51b81526020600482015260146024820152734e6f7420656e6f75676820617070726f76616c7360601b6044820152606401610b38565b60005b828110156119ea57600084848381811061189457611894613ef4565b9050602002013590508083036118e45760405162461bcd60e51b815260206004820152601560248201527421b0b73a1030b8383937bb32903cb7bab939b2b63360591b6044820152606401610b38565b6000818152600760205260409020546001600160a01b03166119185760405162461bcd60e51b8152600401610b3890613ece565b6000838152600a6020908152604080832084845290915290205460ff16156119755760405162461bcd60e51b815260206004820152601060248201526f105b1c9958591e48185c1c1c9bdd995960821b6044820152606401610b38565b6000838152600a602090815260408083208484528252808320805460ff191660019081179091556007835281842060020180549182018155845291832090910185905551829185917f719ade0a42317292b9d5bfe63456c7ba1db67cbe585f23d5eb3fbf5f66bf32469190a350600101611878565b5050610e5f6001600655565b6119fe612f02565b601155565b611a0c3361236d565b611a285760405162461bcd60e51b8152600401610b3890613ece565b611a30612f2f565b84518614611a505760405162461bcd60e51b8152600401610b389061410e565b336007600089898281611a6557611a65613ef4565b60209081029290920135835250810191909152604001600020546001600160a01b031614611adf5760405162461bcd60e51b815260206004820152602160248201527f4669727374207375726665722073686f756c64206265207468652073656e64656044820152603960f91b6064820152608401610b38565b428210611b2e5760405162461bcd60e51b815260206004820181905260248201527f53657373696f6e2074696d65206d75737420626520696e2074686520706173746044820152606401610b38565b600087878787878787604051602001611b4d979695949392919061414f565b604051602081830303815290604052805190602001209050600b60008281526020019081526020016000206001018054611b8690613e94565b159050611bce5760405162461bcd60e51b815260206004820152601660248201527553657373696f6e20616c72656164792065786973747360501b6044820152606401610b38565b6040518061012001604052806000151581526020018381526020018989808060200260200160405190810160405280939291908181526020018383602002808284376000920191909152505050908252506020810188905260408101879052606081018690526080810185905260a001886001600160401b03811115611c5657611c566139f1565b604051908082528060200260200182016040528015611c7f578160200160208202803683370190505b508152600160209182018190526000848152600b8352604090208351815460ff19169015151781559183015190820190611cb99082614215565b5060408201518051611cd5916002840191602090910190613478565b5060608201518051611cf1916003840191602090910190613478565b506080820151600482015560a0820151600582015560c0820151600682015560e08201518051611d2b9160078401916020909101906134c3565b5061010091909101516008909101556000818152600b60205260408120600701805460019290611d5d57611d5d613ef4565b90600052602060002090602091828204019190066101000a81548160ff021916908315150217905550807f32c3ff8f098354dffdedb285512c74a0f818a55d23849eaecc0c16a554cf544560405160405180910390a250611dbe6001600655565b50505050505050565b60606004805461090e90613e94565b611dde612f02565b610e5f8282612fec565b600760205260009081526040902080546001820180546001600160a01b039092169291611e1490613e94565b80601f0160208091040260200160405190810160405280929190818152602001828054611e4090613e94565b8015611e8d5780601f10611e6257610100808354040283529160200191611e8d565b820191906000526020600020905b815481529060010190602001808311611e7057829003601f168201915b505050505090806003018054611ea290613e94565b80601f0160208091040260200160405190810160405280929190818152602001828054611ece90613e94565b8015611f1b5780601f10611ef057610100808354040283529160200191611f1b565b820191906000526020600020905b815481529060010190602001808311611efe57829003601f168201915b5050505050905083565b611f2d612f2f565b601054600d54611f3d9190613faa565b421015611f985760405162461bcd60e51b8152602060048201526024808201527f4f6e6c79206f6e65207375726665722063616e206265206164646564207065726044820152632064617960e01b6064820152608401610b38565b6000829003611fe15760405162461bcd60e51b8152602060048201526015602482015274416c6961732063616e6e6f7420626520656d70747960581b6044820152606401610b38565b60008151116120325760405162461bcd60e51b815260206004820181905260248201527f6f6666636861696e496e666f486173682063616e6e6f7420626520656d7074796044820152606401610b38565b61203b3361236d565b1561207b5760405162461bcd60e51b815260206004820152601060248201526f20b63932b0b23c90309039bab93332b960811b6044820152606401610b38565b60006120bc84848080601f01602080910402602001604051908101604052809392919081815260200183838082843760009201919091525061307492505050565b3360008181526008602090815260408083208590558483526007909152902080546001600160a01b03191690911781559091506001016120fd8486836142d3565b5060008181526007602052604090206003016121198382614215565b506009805460018101825560009182527f6e1540171b6c0c960b71a7020d9f60077f6af931a8bbf590da0223dacf75c7af0182905542600d5560405182917f9f6cb28b8c441711659f47d1c7019ae3f4e5ffaa6a65ae20db236c5370523dc491a2506121856001600655565b505050565b6121be604051806080016040528060006001600160a01b031681526020016060815260200160608152602001606081525090565b60008281526007602090815260409182902082516080810190935280546001600160a01b0316835260018101805491928401916121fa90613e94565b80601f016020809104026020016040519081016040528092919081815260200182805461222690613e94565b80156122735780601f1061224857610100808354040283529160200191612273565b820191906000526020600020905b81548152906001019060200180831161225657829003601f168201915b50505050508152602001600282018054806020026020016040519081016040528092919081815260200182805480156122cb57602002820191906000526020600020905b8154815260200190600101908083116122b7575b505050505081526020016003820180546122e490613e94565b80601f016020809104026020016040519081016040528092919081815260200182805461231090613e94565b801561235d5780601f106123325761010080835404028352916020019161235d565b820191906000526020600020905b81548152906001019060200180831161234057829003601f168201915b5050505050815250509050919050565b6001600160a01b0316600090815260086020526040902054151590565b6060600c8054806020026020016040519081016040528092919081815260200182805480156109875760200282019190600052602060002090815481526020019060010190808311610a13575050505050905090565b6123e8612f2f565b6000848152600760205260409020546001600160a01b031661241c5760405162461bcd60e51b8152600401610b3890613ece565b836009848154811061243057612430613ef4565b9060005260206000200154146124765760405162461bcd60e51b815260206004820152600b60248201526a0aee4dedcce40d2dcc8caf60ab1b6044820152606401610b38565b6005546001600160a01b03163314806124a557506000848152600760205260409020546001600160a01b031633145b6124e25760405162461bcd60e51b815260206004820152600e60248201526d139bdd08185d5d1a1bdc9a5e995960921b6044820152606401610b38565b6000848152600760205260409020546001600160a01b0383811691161480612510575061250e8261236d565b155b6125555760405162461bcd60e51b81526020600482015260166024820152754164647265737320616c726561647920696e2075736560501b6044820152606401610b38565b6000848152600760208181526040808420546001600160a01b0316808552848352908420549388905291905261258b9082612fec565b6125958382612fb6565b600085815260076020526040902080546001600160a01b0319166001600160a01b0385161781556003016125c98382614215565b5060405185907f1cc4dba30fb427dfa429d5102cfc22ed15cb4e4477ecc5cfdd4fb573d9342c2790600090a2506126006001600655565b50505050565b61260e612f2f565b6000828152600760205260409020546001600160a01b03166126425760405162461bcd60e51b8152600401610b3890613ece565b816009828154811061265657612656613ef4565b90600052602060002001541461269c5760405162461bcd60e51b815260206004820152600b60248201526a0aee4dedcce40d2dcc8caf60ab1b6044820152606401610b38565b6005546001600160a01b03163314806126cb57506000828152600760205260409020546001600160a01b031633145b6127085760405162461bcd60e51b815260206004820152600e60248201526d139bdd08185d5d1a1bdc9a5e995960921b6044820152606401610b38565b6000828152600760208181526040808420546001600160a01b0316808552848352908420549386905291905261273e9082612fec565b600083815260076020526040812080546001600160a01b0319168155906127686001830182613563565b61277660028301600061359d565b612784600383016000613563565b50506009805461279690600190614392565b815481106127a6576127a6613ef4565b9060005260206000200154600983815481106127c4576127c4613ef4565b60009182526020909120015560098054806127e1576127e16143a5565b60019003818190600052602060002001600090559055827f97ee67b70c85b955aed3250dd7f214d920a20c3fbf504ae7afb0dc189a3c1a5360405160405180910390a250610e5f6001600655565b6128383361236d565b6128545760405162461bcd60e51b8152600401610b3890613ece565b61285c612f2f565b8651881461287c5760405162461bcd60e51b8152600401610b389061410e565b8188146128cb5760405162461bcd60e51b815260206004820152601a60248201527f5369676e617475726573206c656e677468206d69736d617463680000000000006044820152606401610b38565b42841061291a5760405162461bcd60e51b815260206004820181905260248201527f53657373696f6e2074696d65206d75737420626520696e2074686520706173746044820152606401610b38565b600089898989898987604051602001612939979695949392919061414f565b604051602081830303815290604052805190602001209050600b6000828152602001908152602001600020600101805461297290613e94565b1590506129ba5760405162461bcd60e51b815260206004820152601660248201527553657373696f6e20616c72656164792065786973747360501b6044820152606401610b38565b6040518061012001604052806000151581526020018381526020018b8b80806020026020016040519081016040528093929190818152602001838360200280828437600092019190915250505090825250602081018a905260408101899052606081018890526080810187905260a0018a6001600160401b03811115612a4257612a426139f1565b604051908082528060200260200182016040528015612a6b578160200160208202803683370190505b50815260006020918201819052838152600b8252604090208251815460ff1916901515178155908201516001820190612aa49082614215565b5060408201518051612ac0916002840191602090910190613478565b5060608201518051612adc916003840191602090910190613478565b506080820151600482015560a0820151600582015560c0820151600682015560e08201518051612b169160078401916020909101906134c3565b50610100820151816008015590505060005b89811015612dbe576000612b50612b3e84612f59565b878785818110610bf757610bf7613ef4565b9050600760008d8d85818110612b6857612b68613ef4565b60209081029290920135835250810191909152604001600020546001600160a01b03828116911614612bac5760405162461bcd60e51b8152600401610b3890613f50565b612be58c8c84818110612bc157612bc1613ef4565b905060200201356000908152600760205260409020546001600160a01b0316151590565b612c2a5760405162461bcd60e51b815260206004820152601660248201527529b4b3b732b91034b9903737ba10309039bab93332b960511b6044820152606401610b38565b600f54600760008e8e86818110612c4357612c43613ef4565b905060200201358152602001908152602001600020600201805490501015612ca65760405162461bcd60e51b815260206004820152601660248201527514da59db995c881a5cc81b9bdd08185c1c1c9bdd995960521b6044820152606401610b38565b601154600e54612cb69190613faa565b421015612cd55760405162461bcd60e51b8152600401610b3890613fbd565b612d41600760008e8e86818110612cee57612cee613ef4565b60209081029290920135835250810191909152604001600020546001600160a01b0316612d1d6012600a6140e8565b8c8581518110612d2f57612d2f613ef4565b602002602001015161110a91906140f7565b6000838152600b6020526040902060070180546001919084908110612d6857612d68613ef4565b6000918252602080832081830401805460ff601f9094166101000a938402191694151592909202939093179055848152600b90915260408120600801805491612db083613f91565b909155505050600101612b28565b508615612dd157612dd16111328861218a565b8515612e2a57612de36012600a6140e8565b612dee9060036140f7565b612dfa61117b8861218a565b1015612e1e57612e19612e0c8761218a565b516111c161117b8961218a565b612e2a565b612e2a6111db8761218a565b42600e556000818152600b6020526040808220805460ff19166001908117909155600c8054918201815583527fdf6966c971051c3d54ec59162606531493a51404a002842f56009d7e5cf4a8c7018390555182917ffce50d447ab76865567b9df14c39fb86eee1bc59f8d5d8c637f1a9d161063e9291a250612eac6001600655565b505050505050505050565b612ebf612f02565b6001600160a01b038116612ee957604051631e4fbdf760e01b815260006004820152602401610b38565b612ef281613022565b50565b61218583838360016130a4565b6005546001600160a01b0316331461127b5760405163118cdaa760e01b8152336004820152602401610b38565b600260065403612f5257604051633ee5aeb560e01b815260040160405180910390fd5b6002600655565b7f19457468657265756d205369676e6564204d6573736167653a0a3332000000006000908152601c91909152603c902090565b600080600080612f9c8686613179565b925092509250612fac82826131c6565b5090949350505050565b6001600160a01b038216612fe05760405163ec442f0560e01b815260006004820152602401610b38565b610e5f6000838361327f565b6001600160a01b03821661301657604051634b637e8f60e11b815260006004820152602401610b38565b610e5f8260008361327f565b600580546001600160a01b038381166001600160a01b0319831681179093556040519116919082907f8be0079c531659141344cd1fd0a4f28419497f9722a3daafe3b4186f6b6457e090600090a35050565b60008160405160200161308791906143bb565b604051602081830303815290604052805190602001209050919050565b6001600160a01b0384166130ce5760405163e602df0560e01b815260006004820152602401610b38565b6001600160a01b0383166130f857604051634a1406b160e11b815260006004820152602401610b38565b6001600160a01b038085166000908152600160209081526040808320938716835292905220829055801561260057826001600160a01b0316846001600160a01b03167f8c5be1e5ebec7d5bd14f71427d1e84f3dd0314c0f7b2291e5b200ac8c7c3b9258460405161316b91815260200190565b60405180910390a350505050565b600080600083516041036131b35760208401516040850151606086015160001a6131a5888285856133a9565b9550955095505050506131bf565b50508151600091506002905b9250925092565b60008260038111156131da576131da6143d7565b036131e3575050565b60018260038111156131f7576131f76143d7565b036132155760405163f645eedf60e01b815260040160405180910390fd5b6002826003811115613229576132296143d7565b0361324a5760405163fce698f760e01b815260048101829052602401610b38565b600382600381111561325e5761325e6143d7565b03610e5f576040516335e2f38360e21b815260048101829052602401610b38565b6001600160a01b0383166132aa57806002600082825461329f9190613faa565b9091555061331c9050565b6001600160a01b038316600090815260208190526040902054818110156132fd5760405163391434e360e21b81526001600160a01b03851660048201526024810182905260448101839052606401610b38565b6001600160a01b03841660009081526020819052604090209082900390555b6001600160a01b03821661333857600280548290039055613357565b6001600160a01b03821660009081526020819052604090208054820190555b816001600160a01b0316836001600160a01b03167fddf252ad1be2c89b69c2b068fc378daa952ba7f163c4a11628f55a4df523b3ef8360405161339c91815260200190565b60405180910390a3505050565b600080807f7fffffffffffffffffffffffffffffff5d576e7357a4501ddfe92f46681b20a08411156133e4575060009150600390508261346e565b604080516000808252602082018084528a905260ff891692820192909252606081018790526080810186905260019060a0016020604051602081039080840390855afa158015613438573d6000803e3d6000fd5b5050604051601f1901519150506001600160a01b0381166134645750600092506001915082905061346e565b9250600091508190505b9450945094915050565b8280548282559060005260206000209081019282156134b3579160200282015b828111156134b3578251825591602001919060010190613498565b506134bf9291506135b7565b5090565b82805482825590600052602060002090601f016020900481019282156134b35791602002820160005b8382111561352957835183826101000a81548160ff02191690831515021790555092602001926001016020816000010492830192600103026134ec565b80156135565782816101000a81549060ff0219169055600101602081600001049283019260010302613529565b50506134bf9291506135b7565b50805461356f90613e94565b6000825580601f1061357f575050565b601f016020900490600052602060002090810190612ef291906135b7565b5080546000825590600052602060002090810190612ef291905b5b808211156134bf57600081556001016135b8565b6000602082840312156135de57600080fd5b5035919050565b60005b838110156136005781810151838201526020016135e8565b50506000910152565b600081518084526136218160208601602086016135e5565b601f01601f19169290920160200192915050565b600081518084526020840193506020830160005b82811015613667578151865260209586019590910190600101613649565b5093949350505050565b600081518084526020840193506020830160005b828110156136675781511515865260209586019590910190600101613685565b602081526136b860208201835115159052565b6000602083015161012060408401526136d5610140840182613609565b90506040840151601f198483030160608501526136f28282613635565b9150506060840151601f198483030160808501526137108282613635565b915050608084015160a084015260a084015160c084015260c084015160e084015260e0840151601f198483030161010085015261374d8282613671565b9150506101008401516101208401528091505092915050565b6020815260006137796020830184613609565b9392505050565b80356001600160a01b038116811461379757600080fd5b919050565b600080604083850312156137af57600080fd5b6137b883613780565b946020939093013593505050565b6020815260006137796020830184613635565b861515815260c0602082015260006137f460c0830188613609565b90508560408301528460608301528360808301528260a0830152979650505050505050565b60008060006060848603121561382e57600080fd5b61383784613780565b925061384560208501613780565b929592945050506040919091013590565b60008083601f84011261386857600080fd5b5081356001600160401b0381111561387f57600080fd5b6020830191508360208260051b850101111561389a57600080fd5b9250929050565b6000806000806000606086880312156138b957600080fd5b8535945060208601356001600160401b038111156138d657600080fd5b6138e288828901613856565b90955093505060408601356001600160401b0381111561390157600080fd5b61390d88828901613856565b969995985093965092949392505050565b60006020828403121561393057600080fd5b61377982613780565b6000806040838503121561394c57600080fd5b50508035926020909101359150565b6001600160a01b038516815260806020820181905260009061397f90830186613609565b82810360408401526139918186613635565b905082810360608401526139a58185613609565b979650505050505050565b600080602083850312156139c357600080fd5b82356001600160401b038111156139d957600080fd5b6139e585828601613856565b90969095509350505050565b634e487b7160e01b600052604160045260246000fd5b604051601f8201601f191681016001600160401b0381118282101715613a2f57613a2f6139f1565b604052919050565b600082601f830112613a4857600080fd5b81356001600160401b03811115613a6157613a616139f1565b8060051b613a7160208201613a07565b91825260208185018101929081019086841115613a8d57600080fd5b6020860192505b83831015613aaf578235825260209283019290910190613a94565b9695505050505050565b600082601f830112613aca57600080fd5b81356001600160401b03811115613ae357613ae36139f1565b613af6601f8201601f1916602001613a07565b818152846020838601011115613b0b57600080fd5b816020850160208301376000918101602001919091529392505050565b600080600080600080600060c0888a031215613b4357600080fd5b87356001600160401b03811115613b5957600080fd5b613b658a828b01613856565b90985096505060208801356001600160401b03811115613b8457600080fd5b613b908a828b01613a37565b95505060408801359350606088013592506080880135915060a08801356001600160401b03811115613bc157600080fd5b613bcd8a828b01613ab9565b91505092959891949750929550565b6001600160a01b0384168152606060208201819052600090613c0090830185613609565b8281036040840152613aaf8185613609565b600080600060408486031215613c2757600080fd5b83356001600160401b03811115613c3d57600080fd5b8401601f81018613613c4e57600080fd5b80356001600160401b03811115613c6457600080fd5b866020828401011115613c7657600080fd5b6020918201945092508401356001600160401b03811115613c9657600080fd5b613ca286828701613ab9565b9150509250925092565b602080825282516001600160a01b03168282015282015160806040830152600090613cda60a0840182613609565b90506040840151601f19848303016060850152613cf78282613635565b9150506060840151601f19848303016080850152613d158282613609565b95945050505050565b60008060008060808587031215613d3457600080fd5b8435935060208501359250613d4b60408601613780565b915060608501356001600160401b03811115613d6657600080fd5b613d7287828801613ab9565b91505092959194509250565b60008060408385031215613d9157600080fd5b613d9a83613780565b9150613da860208401613780565b90509250929050565b600080600080600080600080600060e08a8c031215613dcf57600080fd5b89356001600160401b03811115613de557600080fd5b613df18c828d01613856565b909a5098505060208a01356001600160401b03811115613e1057600080fd5b613e1c8c828d01613a37565b97505060408a0135955060608a0135945060808a0135935060a08a01356001600160401b03811115613e4d57600080fd5b613e598c828d01613856565b90945092505060c08a01356001600160401b03811115613e7857600080fd5b613e848c828d01613ab9565b9150509295985092959850929598565b600181811c90821680613ea857607f821691505b602082108103613ec857634e487b7160e01b600052602260045260246000fd5b50919050565b6020808252600c908201526b2737ba10309039bab93332b960a11b604082015260600190565b634e487b7160e01b600052603260045260246000fd5b6000808335601e19843603018112613f2157600080fd5b8301803591506001600160401b03821115613f3b57600080fd5b60200191503681900382131561389a57600080fd5b602080825260119082015270496e76616c6964207369676e617475726560781b604082015260600190565b634e487b7160e01b600052601160045260246000fd5b600060018201613fa357613fa3613f7b565b5060010190565b808201808211156109a5576109a5613f7b565b60208082526024908201527f53657373696f6e2074696d6520696e74657276616c206c696d697420657863656040820152631959195960e21b606082015260800190565b6001815b600184111561403c5780850481111561402057614020613f7b565b600184161561402e57908102905b60019390931c928002614005565b935093915050565b600082614053575060016109a5565b81614060575060006109a5565b816001811461407657600281146140805761409c565b60019150506109a5565b60ff84111561409157614091613f7b565b50506001821b6109a5565b5060208310610133831016604e8410600b84101617156140bf575081810a6109a5565b6140cc6000198484614001565b80600019048211156140e0576140e0613f7b565b029392505050565b600061377960ff841683614044565b80820281158282048414176109a5576109a5613f7b565b60208082526021908201527f5375726665727320616e64207761766573206c656e677468206d69736d6174636040820152600d60fb1b606082015260800190565b60006001600160fb1b0388111561416557600080fd5b8760051b808a84378751908301906020890160005b8281101561419857815184526020938401939091019060010161417a565b50505086815285602082015284604082015283516141bd8160608401602088016135e5565b016060019998505050505050505050565b601f82111561218557806000526020600020601f840160051c810160208510156141f55750805b601f840160051c820191505b81811015610e365760008155600101614201565b81516001600160401b0381111561422e5761422e6139f1565b6142428161423c8454613e94565b846141ce565b6020601f821160018114614276576000831561425e5750848201515b600019600385901b1c1916600184901b178455610e36565b600084815260208120601f198516915b828110156142a65787850151825560209485019460019092019101614286565b50848210156142c45786840151600019600387901b60f8161c191681555b50505050600190811b01905550565b6001600160401b038311156142ea576142ea6139f1565b6142fe836142f88354613e94565b836141ce565b6000601f841160018114614332576000851561431a5750838201355b600019600387901b1c1916600186901b178355610e36565b600083815260209020601f19861690835b828110156143635786850135825560209485019460019092019101614343565b50868210156143805760001960f88860031b161c19848701351681555b505060018560011b0183555050505050565b818103818111156109a5576109a5613f7b565b634e487b7160e01b600052603160045260246000fd5b600082516143cd8184602087016135e5565b9190910192915050565b634e487b7160e01b600052602160045260246000fdfea264697066735822122006f0f7871cca583bd30bc009da8a5968abab4266c7c468f76117d71ecf4033c264736f6c634300081c0033",
  "linkReferences": {},
  "deployedLinkReferences": {}
}